:020000040810E2
:100000003007001039031008671E1008D51A1008B1
:10001000651E10083F041008EB25100800000000C2
:100020000000000000000000000000003121100866
:100030004104100800000000691E10083321100858
:1000400053031008530310085303100853031008F8
:1000500053031008530310085303100853031008E8
:1000600053031008530310085303100853031008D8
:1000700053031008530310085303100853031008C8
:1000800053031008530310085303100853031008B8
:1000900053031008530310085303100853031008A8
:1000A0005303100853031008530310085303100898
:1000B0005303100853031008530310085303100888
:1000C0005303100853031008530310085303100878
:1000D0005303100853031008530310085303100868
:1000E00053031008530310080000000053031008C6
:1000F0005303100853031008530310085303100848
:100100005303100853031008530310085303100837
:100110005303100853031008530310085303100827
:100120005303100853031008530310085303100817
:100130005303100853031008530310085303100807
:1001400053031008530310080000000000000000D3
:1001500053031008530310085303100853031008E7
:1001600053031008530310085303100853031008D7
:100170005303100853031008530310080000000035
:1001800053031008530310085303100853031008B7
:1001900053031008530310085303100853031008A7
:1001A0005303100853031008530310085303100897
:1001B0005303100853031008530310085303100887
:1001C0005303100853031008530310085303100877
:1001D0005303100853031008530310085303100867
:1001E0005303100853031008530310085303100857
:1001F0005303100853031008530310085303100847
:100200005303100853031008530310085303100836
:100210005303100853031008530310085303100826
:100220005303100853031008530310085303100816
:100230005303100853031008530310085303100806
:1002400053031008530310085303100853031008F6
:1002500053031008530310085303100853031008E6
:1002600053031008530310085303100853031008D6
:1002700053031008530310085303100853031008C6
:100280005303100853031008530310080000000024
:10029000530310085303100800F002F800F03CF874
:1002A0000AA090E8000C82448344AAF10107DA45D1
:1002B00001D100F031F8AFF2090EBAE80F0013F0E7
:1002C000010F18BFFB1A43F001031847C4230000B5
:1002D000E4230000103A24BF78C878C1FAD8520746
:1002E00024BF30C830C144BF04680C6070470000B0
:1002F0000023002400250026103A28BF78C1FBD82F
:10030000520728BF30C148BF0B6070471FB502F0CD
:10031000B1F91FBD10B510BD00F058F81146FFF738
:10032000F5FF02F073F900F076F803B4FFF7F2FF7F
:1003300003BC00F07DF800000948804709480047E9
:10034000FEE7FEE7FEE7FEE7FEE7FEE7FEE7FEE785
:10035000FEE7FEE704480549054A064B70470000E2
:1003600039211008990210083001001030070010E0
:1003700030030010300300104FF0000200B51346A8
:1003800094469646203922BFA0E80C50A0E80C50B5
:10039000B1F12001BFF4F7AF090728BFA0E80C5066
:1003A00048BF0CC05DF804EB890028BF40F8042B5F
:1003B00008BF704748BF20F8022B11F0804F18BFCC
:1003C00000F8012B7047704770477047754600F082
:1003D0002BF8AE4605006946534620F007008546D7
:1003E00018B020B5FFF7B6FFBDE820404FF000067B
:1003F0004FF000074FF000084FF0000B21F007010D
:10040000AC46ACE8C009ACE8C009ACE8C009ACE84F
:10041000C0098D46704710B50446AFF300802046F2
:10042000BDE81040FFF781BF00487047D0000010C2
:1004300001491820ABBEFEE7260002007047FEE728
:10044000704772B6FEE700002DE9F84F0023012641
:10045000864D03244FF00F094FF0B04AFFE000BF74
:1004600006FA03F73A407DD091F804C00CF0030C73
:10047000BCF1010F02D0BCF1020F1AD1D0F808C0B4
:100480004FEA430E04FA0EF82CEA080BD1F80C8060
:1004900008FA0EF848EA0B08C0F80880D0F804C043
:1004A0002CEA070C0F79C7F300179F4047EA0C07A7
:1004B00047600F79FF43BF070ED0C7684FEA430874
:1004C00004FA08FC27EA0C07D1F808C00CFA08FC6B
:1004D0004CEA070CC0F80CC00F7907F00307022F95
:1004E00014D1DF0800EB8707BB463F6A4FEA437C25
:1004F0004FEADC6809FA08FC27EA0C07D1F810C0BB
:100500000CFA08FC4CEA070CCBF820C007684FEA4D
:10051000430804FA08FC27EA0C0791F804C00CF021
:10052000030C0CFA08FC4CEA070CC0F800C04F683A
:1005300017F4403F16D04E4FD7F800C04CF0020CD5
:10054000C7F800C03F6807F00207009723F00307D1
:1005500007F1B047BB46D7F808744FEA837C4FEAEF
:100560001C7800E07AE009FA08FC27EA0C07DFF8BB
:1005700004C1604502D14FF0000C40E0DFF8F8C044
:10058000604502D14FF0010C39E0DFF8F0C0604562
:1005900002D14FF0020C32E0DFF8E4C0604502D136
:1005A0004FF0030C2BE0DFF8DCC0604502D14FF0C8
:1005B000040C24E0DFF8D0C0604502D14FF0050CF8
:1005C0001DE0DFF8C8C0604502D14FF0060C16E010
:1005D000DFF8BCC0604502D14FF0070C0FE0DFF838
:1005E000B4C0604502D14FF0080C08E0DFF8A8C0A5
:1005F000604502D14FF0090C01E04FF00A0C0CFAF3
:1006000008FC4CEA070CCBF808C4DAF80070D446B2
:10061000D1F8048097435FEAC82800D51743CCF887
:100620000070DCF80470D1F8048097435FEA8828F2
:1006300000D51743CCF804706F68D1F804C0974315
:100640005FEA8C3C00D517436F602F68D1F804C077
:1006500097435FEACC3C00D517432F605B1C0A68C8
:1006600032FA03F77FF4FCAEBDE8F88FC000005803
:10067000F4440258000002580004025800080258CE
:10068000000C0258001002580014025800180258BA
:10069000001C025800200258002402580448006838
:1006A000C0F30310072801D00120704703207047D2
:1006B00000ED00E001488068704700000000001075
:1006C00002490A6802430A60704700001065025838
:1006D0000248816802781144816070470000001070
:1006E0001C4808B5016841F480410160006800F4CD
:1006F0008040009018480168184A114041F40141B7
:100700000160016841F001010160032000F07CF804
:1007100000F0CEFD0F49C0390A680968C2F303230F
:100720000F4AD35C03F01F03D84001F00F01515C66
:1007300001F01F01C8400B4908600B490860002008
:1007400000F014F808B1012008BD00F02FF80020D7
:1007500008BD0000D844025800440240FF00F0FFEA
:100760007E261008100000100C00001070B50D4D12
:1007700004462878A0B14FF47A71B1FBF0F00A4931
:100780000968B1FBF0F000F029FF48B9102C07D23E
:1007900000222146501E00F017F800206C6070BD4A
:1007A000012070BD000000100C000010054808B5C5
:1007B000016841F002010160006800F00200009051
:1007C00008BD0000F4440258F0B40E4B1B680C4600
:1007D000C3F30223C3F10705042D00D90425191D15
:1007E000072901D2002300E0DB1E012606FA05F1ED
:1007F000491E214099409E40761E16403143F0BC70
:1008000001F0F4BE0CED00E0064900F007020868B4
:100810004FF6FF03184040EA0220034A10430860E5
:10082000704700000CED00E00000FA0510B5FFF77E
:1008300035FF032800D040BF20BF10BD2DE9F04197
:100840000F4620490B6823F0010303430B601D4D45
:100850001D4C103562B12E1D012A17D0FFF71EFF67
:10086000032829D0306820F004003060BDE8F08112
:10087000FFF714FF0328F9D1286820F00100286051
:100880000CE0206820F004002060EFE7FFF706FF8F
:100890000128EBD1306820F002003060206840F081
:1008A00004002060BFF34F8FBFF36F8F012F01D083
:1008B00020BFE6E730BFE4E7286820F004002860A6
:1008C000D4E700000048025810ED00E02DE9FE4F8B
:1008D000054600680024C043010105F108000090AE
:1008E000F64FDFF8DC8305F12800264601901DD481
:1008F000E86E50B1B0F5801F0CD0B0F5001F0ED0DF
:10090000B0F5401F1ED001240FE0386840F40030DD
:10091000386017E00221009801F0A8FA03E00221F4
:10092000019801F02DFB04000CD026462888C04316
:10093000C00523D4E86D05281ED2DFE800F00C11B5
:10094000161B1B00D8F80010EA6E21F44011114369
:10095000C8F80010EAE7386840F40030386009E071
:100960000021009801F082FA03E00021019801F0D3
:1009700007FB044674B100E0012426462888C043E2
:10098000800528D4286E80281ED00CDC90B1402829
:100990000ED114E0D8F80010EA6D21F007011143E0
:1009A000C8F80010EAE7C02813D0B0F5807F10D057
:1009B00001240FE0386840F40030386009E000217D
:1009C000009801F053FA03E00021019801F0D8FAF1
:1009D00004468CB126462888DFF8E892C0434005DB
:1009E0002CD4D5F8AC00B0F5800F20D00DDCA0B130
:1009F000B0F5001F0FD115E0D8F800102A6E21F4D1
:100A0000E0711143C8F80010E5E7B0F5C00F13D04E
:100A1000B0F5000F10D001240FE0386840F400302A
:100A2000386009E00021009801F020FA03E000217D
:100A3000019801F0A5FA04467CB126462888C043F7
:100A400000052DD4D5F8B000B0F1007F21D00EDC28
:100A5000A8B1B0F1807F10D116E0D9F80010D5F818
:100A6000AC2021F460011143C9F80010E6E7B0F1B1
:100A7000407F13D0B0F1806F10D001240FE03868B0
:100A800040F40030386009E00021009801F0EEF9F0
:100A900003E00021019801F073FA044684B1264670
:100AA0002868DFF824B2C04380011FD4E86CD8B1B5
:100AB00010280FD0202812D0302815D0012414E09F
:100AC000D9F80010D5F8B02021F0E0611143C9F841
:100AD0000010E5E7386840F40030386004E0022197
:100AE000009801F0C3F9044674B126462888C04333
:100AF000C0042BD4686EB0F5005F20D00DDCA0B12F
:100B0000B0F5805F0FD115E0DBF80010EA6C21F042
:100B100030011143CBF80010E8E7B0F5405F13D087
:100B2000B0F5804F10D001240FE0386840F4003059
:100B3000386009E00021009801F098F903E00021F5
:100B4000019801F01DFA04468CB126462888C0435E
:100B5000800429D4A86EB0F5403F23D010DC08B340
:100B6000B0F5803F14D0B0F5003F0FD115E0D8F8B4
:100B700000106A6E21F4E0411143C8F80010E5E767
:100B8000B0F5802F0ED0B0F5A02F0BD001240AE0D5
:100B90000121009801F06AF903E00121019801F0B8
:100BA000EFF9044694B126462888C04340042AD46D
:100BB000D5F8B400B0F1405F23D010DC08B3B0F139
:100BC000805F14D0B0F1005F0FD115E0D8F80010AD
:100BD000AA6E21F4E0211143C8F80010E4E7B0F157
:100BE000804F0ED0B0F1A04F0BD001240AE00121BC
:100BF000009801F03BF903E00121019801F0C0F9F0
:100C000004465CB126462868C043400117D4286DCD
:100C100098B1B0F5807F0BD001240FE0D9F8001017
:100C2000D5F8B42021F0E0411143C9F80010EAE7FB
:100C30000121009801F01AF9044674B1264628886B
:100C4000C04300041ED4686FD0B1B0F1805F0DD0F6
:100C5000B0F1005F0FD0012413E0DBF800102A6D23
:100C600021F480711143CBF80010E8E7386840F4B4
:100C70000030386004E00121009801F0F7F80446E4
:100C800074B126462868C043C00126D4A86C10B3AE
:100C900001280ED0022819D003281CD001241BE003
:100CA000D8F800106A6F21F040511143C8F80010C5
:100CB000E8E7386840F4003038600CE02C44025813
:100CC00050440258584402584C440258022100989B
:100CD00001F0CCF804466CB126462868C0434002B7
:100CE0004ED4FA48016841F480710160FFF7E2FCDC
:100CF00082460FE0DBF80010AA6C21F003011143DB
:100D0000CBF80010E9E700BFFFF7D4FCA0EB0A0026
:100D1000642833D8ED480068C005F5D57CBBDFF802
:100D2000B0A3DAF80000B5F8B81000F4407001F490
:100D30004071884211D0DAF80010DAF8002021F46E
:100D4000407142F48032CAF80020DAF8002022F420
:100D50008032CAF80020CAF80010D5F8B800B0F503
:100D6000807F18D1FFF7A6FC029010E0FFF7A2FCED
:100D70000299411A41F28830814208D9032426465B
:100D80002878DFF850A3C043C00722D03EE0DAF84D
:100D900000008007EAD5D5F8B810C1F30120032878
:100DA000CD480DD0016821F47C510160DAF80010C3
:100DB000B5F8B820C2F30B021143CAF80010DFE700
:100DC0000268C64B22F47C5203EA11110A43026006
:100DD000ECE7D5F88000182816D005DCA0B108286B
:100DE00008D0102804D10AE020280DD028280BD0E4
:100DF00001240AE00121009801F038F803E0012104
:100E0000019801F0BDF8044664B126462878C04335
:100E100080071FD4E86F06281AD2DFE800F0170D0C
:100E200012171717DAF80010D5F8802021F03801D2
:100E30001143CAF80010E9E70121009801F016F803
:100E400003E00121019801F09BF804467CB100E029
:100E5000012426462878C04340071FD4D5F89800BF
:100E6000062819D2DFE800F0160C11161616DAF86B
:100E70000010EA6F21F007011143CAF80010E9E7FA
:100E80000121009800F0F2FF03E00121019801F038
:100E900077F80446A4B100E0012426462878C04330
:100EA00080062BD4D5F89400B0F1405F24D011DC3B
:100EB00010B3B0F1805F15D0B0F1005F10D116E033
:100EC000D9F80010D5F8982021F007011143C9F88E
:100ED0000010E3E7B0F1804F0ED0B0F1A04F0BD07F
:100EE00001240AE00021009800F0C0FF03E0022185
:100EF000019801F045F8044694B126462878C0438D
:100F000040062BD4D5F8A000B0F5406F24D011DCFA
:100F100010B3B0F5806F15D0B0F5006F10D116E0AA
:100F2000DAF80010D5F8942021F0E0411143CAF816
:100F30000010E3E7B0F5805F0ED0B0F5A05F0BD0F6
:100F400001240AE00021009800F090FF03E0022154
:100F5000019801F015F8044694B126462878C0435C
:100F600000062BD4D5F8A400B0F5C04F24D011DC76
:100F700010B3B0F5005F15D0B0F5804F10D116E07A
:100F8000D9F80010D5F8A02021F4E0511143C9F898
:100F90000010E3E7B0F5004F0ED0B0F5204F0BD0B6
:100FA00001240AE00021009800F060FF03E0022124
:100FB000019800F0E5FF044654B126462878C04366
:100FC00000071ED4D5F88800B0F5805F0AD00FE086
:100FD000D9F80010D5F8A42021F460411143C9F8D4
:100FE0000010EBE70221019800F0CAFF00B10126D2
:100FF000DAF80010D5F8882021F440511143CAF8DE
:1010000000102878C043C00613D4D5F89C00B0F572
:10101000807F05D10221019800F0B2FF00B10126C6
:10102000D9F80010D5F89C2021F440711143C9F87B
:1010300000102868C043000316D4D5F8A80038B1C2
:10104000B0F5803F09D0B0F5003F0BD001240AE095
:101050000021009800F00AFF03E00221019800F04F
:101060008FFF04468CB126462868C043400322D433
:10107000D5F88C00B0F5801F11D0B0F5001F13D04B
:10108000B0F5401F15D0012414E0D9F80010D5F8B0
:10109000A82021F440311143C9F80010E4E7386872
:1010A00040F40030386004E00121019800F068FF4E
:1010B0000446ACB126462868C043C00326D4686DF8
:1010C000C0B1B0F5803F1AD001241EE0004802589C
:1010D000704402585444025810440258CFFFFF0095
:1010E000DAF80010D5F88C2021F440111143CAF829
:1010F0000010E0E7386840F40030386004E0022176
:10110000009800F0B3FE0446E4B126462868C043C8
:10111000800005D40221019800F032FF00B10126C1
:101120002868C04380031CD4D5F88400B8B1B0F55A
:10113000807F10D0B0F5007F11D0B0F5407F0ED089
:1011400001240DE0DBF800106A6D21F480311143B9
:10115000CBF80010DAE7386840F400303860E4B3C8
:1011600026462868C043C00207D4D8F80010AA6FEA
:1011700021F000411143C8F800102868C043C000A6
:1011800007D44A480168D5F8BC2021F480411143B6
:1011900001602868C043800207D4D8F800102A6F85
:1011A00021F080711143C8F800102868C043400046
:1011B00009D43E48016821F4004101600168D5F876
:1011C000C020114301602868C04309D4DBF8001037
:1011D000AA6D21F04051114300E016E0CBF8001059
:1011E0002868C043000208D4DAF80010D5F890202F
:1011F00021F440011143CAF8001028790024C043AB
:1012000000F0010020430AD00FE0DAF80010D5F812
:10121000842021F440711143CAF80010A1E7002195
:10122000009800F023FE00B106462879C04300F084
:101230000200204305D10121009800F017FE00B103
:1012400006462879C04300F00400204305D102215E
:10125000009800F00BFE00B106462879C04300F06C
:101260000800204305D10021019800F089FE00B15B
:1012700006462879C04300F01000204305D1012123
:10128000019800F07DFE00B106462879C04300F0C9
:101290002000044304D10221019800F071FE00B93E
:1012A00016B10120BDE8FE8F0020FBE71044025874
:1012B00030B543480068444B10F03802414808D02C
:1012C0000111082A03D0102A0BD0182A0BD0084687
:1012D00030BD19688906FBD51968C1F3C101C84042
:1012E00030BD3A4830BD364918310A68096802F005
:1012F0000304334AC1F305111C321268304D02F069
:10130000010224352D68C5F3CC0515FB02F200EE71
:10131000102AB8EE400AE9B3294A9FED2D1AF7EEDC
:10132000000A203264B1DFED2B1A012C01D0022C0F
:101330003CD002EE101AF8EE422A81EEA22A17E003
:101340001C68A4060CD51B68C3F3C103D84001EE8A
:10135000900AF8EE612A01EE901AF8EE611A05E0A3
:1013600001EE901ADFED1C2AF8EE611A82EEA12A36
:101370001068C0F3080001EE900A1068F8EE611AD8
:1013800040EE011A31EEA00A22EE000AC0F3462018
:10139000401C00E011E000EE900AF8EE600A80EEDA
:1013A000201ABCEEC10A10EE100A30BD01EE901AF0
:1013B000DFED0A2AF8EE611AD8E7002030BD000000
:1013C000104402580090D0030044025840787D0138
:1013D000000000390024744A0024744C20BCBE4B29
:1013E000F0B590F82020012A21D0012580F8205066
:1013F000022280F821200468226C0B688E681A4350
:10140000082E16D0022E14D022EA4302CE68002EF7
:101410004FEAC37610D00EB142F400321E0701D558
:1014200042F480129E0612D542F400020FE0022020
:10143000F0BD42EA4302E9E70EB122F400321E0792
:1014400001D522F480129E0601D522F400020E6915
:10145000002E4FEAC3760BD00EB142F480221E0755
:1014600001D542F400129B060DD542F080720AE0CD
:101470000EB122F480221E0701D522F400129B0631
:1014800001D522F080724FF680739A43D1E9053678
:101490003343D1E907673E43496A33430B43134360
:1014A000236480F82150002180F820100846F0BD08
:1014B00010B504004FF0010041D094F8210028B984
:1014C000002084F82000204600F042F8022084F832
:1014D00021002068C168C943C90631D5CA214162CB
:1014E000216853204862204600F0D4FD18BB2068D4
:1014F0008168164A11408160216888686268A36922
:10150000104322691A43104388602189E06840EA49
:10151000014021680861204600F0E0FD58B92168CB
:10152000CA6C22F00302CA646269E169114322684D
:10153000D36C1943D1642268FF21516208B110BDF8
:101540000020012184F8211010BD0000BFFF8FFF93
:1015500010B5B2B00446C8216846FEF70DFF0B492E
:101560002068884210D100020021CDE9000140131B
:101570002E906846FFF7AAF908B1FEF762FF04480B
:10158000016841F40041016032B010BD00400058D4
:101590007044025870B504460B482168C860FFF7D4
:1015A00089F805464FF47A7607E000BFFFF782F826
:1015B000401BB04201D9032070BD2068C06880067E
:1015C000F4D5002070BD00005FFF0300024A1368DD
:1015D00083430B43136070470404005810B5401E4A
:1015E000B0F1807F01D3012010BD4FF0E024606195
:1015F0000F21601700F0FAFF0020A0610720206192
:10160000002010BD30B590F83C20012A3AD00122CC
:1016100080F83C20CA688B6822F440721A434B68F9
:1016200022F480621A430B6822F400621A430B69A9
:1016300022F480521A434B6922F400521A438B6AF7
:1016400022F480421A430B8B22F4702242EA0342B6
:101650000D4D03680024AB4202D00C4DAB420CD1BF
:101660008D8C22F4700242EA0552CD6922F080721C
:101670002A43096A22F000720A435A6480F83C4007
:10168000002030BD022030BD0000014000040140B8
:10169000F0B590F83C20012A3CD0012480F83C4071
:1016A000022280F83D200268536895681A4E1B4F4D
:1016B000B24201D0BA4204D123F4700C4B6843EA21
:1016C0000C0323F0700C0B6843EA0C0353600268B0
:1016D000B24213D0B2F1804F10D0114B9A420DD0CC
:1016E000104B9A420AD0104B9A4207D0BA4205D00A
:1016F0000E4B9A4202D00E4B9A4204D1896825F0D3
:1017000080031943916080F83D40002180F83C102F
:101710000846F0BD0220F0BD000001400004014079
:101720000004004000080040000C00400018004089
:101730000040014010B5040003D094F83D0010B102
:1017400007E0012010BD002084F83C00204600F096
:1017500023F8022084F83D00211D206800F0FAFCE7
:10176000012084F8480084F83E0084F83F0084F8A3
:10177000400084F8410084F8420084F8430084F873
:10178000440084F8450084F8460084F8470084F853
:101790003D00002010BD000010B586B004461421A5
:1017A0006846FEF7E9FD13492068884220D11248B7
:1017B000016841F080010160006800F08000059040
:1017C0000D480838016841F0200101600068694651
:1017D00000F0200005904FF48070009002200190EE
:1017E000002002900390092004900448FEF72CFE8C
:1017F00006B010BD001C0040E84402580014025816
:101800002DE9F041054690F83C0000260C460128E1
:1018100010D0012085F83C0072B1042A1CD0082A9F
:101820002CD00C2A50D00126002085F83C003046F0
:10183000BDE8F0810220FBE7D4E90012E3682868E4
:1018400000F078FE2868816921F00C018161286828
:101850008169A26811430FE0D4E90012E3682868A7
:1018600000F0A8FE2868816921F440618161286840
:101870008169A26841EA02218161D5E72868D4E93B
:10188000002C277B036A016A21F480710162C1691F
:1018900023F4206321F0030141EA0C0121F0F00C54
:1018A00039074FF420674CEA116107EA02221A4314
:1018B000C16102622868C16921F00C01C161286818
:1018C000C169A26811432BE02868D4E90021E768C8
:1018D000036AD0F820C02CF4805CC0F820C0D0F897
:1018E0001CC023F420432CF4407C4CEA012121F459
:1018F000704C4FF6FF7101EA07314FF4204741EA7F
:101900000C0107EA02321A43C16102622868C16908
:1019100021F44061C1612868C169A26841EA0221DD
:10192000C16181E710B5040003D094F83D0010B107
:1019300007E0012010BD002084F83C00204600F0A4
:1019400022F8022084F83D00211D206800F002FCEE
:10195000012084F8480084F83E0084F83F0084F8B1
:10196000400084F8410084F8420084F8430084F881
:10197000440084F8450084F8460084F8470084F861
:101980003D00002010BD704710B586B004461421FC
:101990006846FEF7F1FC0E492068884215D10D48D3
:1019A000016841F4007101600068694600F400704C
:1019B0000590C0200090022001900020029003902A
:1019C000032004900448FEF73FFD06B010BD000060
:1019D00000040140E04402580024025870B5044657
:1019E00090F83C00002501280BD0012084F83C0031
:1019F0000C2A1ED007DC82B1042A12D0082A06D194
:101A000013E0022070BD102A17D0142A19D0012526
:101A1000002084F83C00284670BD206800F002FCDD
:101A2000F6E7206800F04CFCF2E7206800F090FC3C
:101A3000EEE7206800F0D4FCEAE7206800F00AFD39
:101A4000E6E7206800F03EFDE2E710B5040003D0B1
:101A500094F83D0010B107E0012010BD002084F88B
:101A60003C00204600F022F8022084F83D00211DB1
:101A7000206800F06FFB012084F8480084F83E00E5
:101A800084F83F0084F8400084F8410084F8420064
:101A900084F8430084F8440084F8450084F8460044
:101AA00084F8470084F83D00002010BD08B50068A8
:101AB0000649884208D10648016841F002010160E8
:101AC000006800F00200009008BD00000004014022
:101AD000F0440258FEE700002DE9F04786B01421DB
:101AE0006846FEF749FC7D48016841F48071016059
:101AF000016801F480710591016841F040010160C5
:101B0000016801F040010591016841F004010160A4
:101B1000016801F004010591016841F010010160C4
:101B2000016801F010010591016841F002010160B6
:101B3000016801F002010591016841F08001016036
:101B4000016801F080010591016841F00801016020
:101B5000016801F008010591016841F0010101608F
:101B6000016801F001010591016841F02001016067
:101B7000016801F020010591016841F400710160E4
:101B80000068022400F4007005904FF4A850CDE9DD
:101B9000000400200327CDE90207DFF844A10C264A
:101BA000694604965046FEF74FFC402000901220F4
:101BB0000190002005250290CDE90305DFF824916E
:101BC00069464846FEF740FC8020CDE9000400202D
:101BD000029003900920DFF8108104906946404686
:101BE000FEF732FC0420CDE900040020CDE9020715
:101BF000694604964046FEF727FC7002CDE90004D2
:101C000000200290CDE90305DFF8E08069464046F8
:101C1000FEF71AFC3002CDE9000400200290CDE965
:101C20000305334F69463846FEF70EFC0020009648
:101C3000CDE90140CDE9030569465046FEF704FCB5
:101C4000B001CDE900040020029003900820049028
:101C500069463846FEF7F8FB102600200096CDE9CD
:101C600001400A2569462348CDE90345FEF7ECFB10
:101C70004FF47050CDE9000402AA002082E8310040
:101C800069464846FEF7E0FB2020CDE9000402AAA1
:101C9000002082E8310069464046FEF7D5FB00206F
:101CA0000096CDE9014003900B2004906946504610
:101CB000FEF7CAFB60060146FFF788FCA006014656
:101CC000FFF784FCE0050146FFF780FC2006014693
:101CD000FFF77CFC06B0BDE8F0870000E044025846
:101CE0000008025800040258000C02580000025874
:101CF00000240258001C025810B58AB028216846FA
:101D0000FEF73AFB144813490024C0E900147F2170
:101D10008160FF21C0E903148461C4614461FFF75D
:101D2000C7FB08B1FEF78DFB0120CDE9020400904E
:101D300004948020CDE908400594069469460794F0
:101D40000548FFF74DFB002801D0FEF77AFB0AB0EB
:101D500010BD000000400058140000101FB5002402
:101D6000144800940194029411490394C0E90014AA
:101D70004FF6FF71C0E9024104618461FFF7DAFCAC
:101D800008B1FEF75EFB0B48FFF7CCFD08B1FEF78C
:101D900058FB0120CDE90040029400226946054825
:101DA0000394FFF72DFD002801D0FEF74AFB1FBD6D
:101DB000001C00408400001010B596B0002412945E
:101DC00013941C210BA81494FEF7D6FA2C21684614
:101DD000FEF7D2FA22482149C0E900144FF6FF71FC
:101DE000C0E90241046144618461FFF72EFE08B13D
:101DF000FEF727FB1294139412A919481494FFF7C5
:101E000047FC08B1FEF71DFB0B940C940D940E9447
:101E10000F94109404220BA911481194FFF7DEFDD2
:101E200008B1FEF70EFB00944FF40050CDE90440DA
:101E300001940294039400030694CDE907400994A9
:101E4000694607480A94FFF7DDFB08B1FEF7F9FA87
:101E50000348FFF799FD16B010BD000000040140D3
:101E600038000010FEE7FEE7704700002DE9F0475C
:101E7000DFF8088105460E46D8F800004FF000094B
:101E8000C043800709D03D4C283C206820F080608A
:101E90002060FEF70FFC074607E00120BDE8F08751
:101EA000FEF708FCC01B022861D820680001F7D4A7
:101EB000D8F800102A6821F47C3141EA0231C8F8D0
:101EC0000010287AA9884002A0F50070491E80B24F
:101ED000C1F308010843A9894FF4FE02491E02EA32
:101EE00001410843297C1202491E02EA01610843AC
:101EF000224910310860214A121D1068696920F0DA
:101F0000C000084310601068A96920F02000084351
:101F10001060106820F0100010601848143001683C
:101F20004FF6F8739943EB6941EAC3010160106809
:101F300040F0100010606EB11068012E0ED040F419
:101F400000101060206840F080602060FEF7B2FB57
:101F500005460EE0106840F40020F2E740F48010DF
:101F6000EFE700BFFEF7A6FB401B022801D90320C4
:101F700094E720680001F5D548468FE728440258C9
:101F80002DE9F047DFF8088105460E46D8F8000035
:101F90004FF00009C043800709D03D4C283C206821
:101FA00020F080502060FEF785FB074607E0012007
:101FB000BDE8F087FEF77EFBC01B022861D82068D1
:101FC0008000F7D4D8F800102A8821F07C7141EA0B
:101FD0000251C8F80010287AA9884002A0F50070C4
:101FE000491E80B2C1F308010843A9894FF4FE02DB
:101FF000491E02EA01410843297C1202491E02EAF5
:1020000001610843224918310860214A121D1068F5
:10201000696920F44060084310601068A96920F4E1
:10202000007008431060106820F480701060184839
:102030001C3001684FF6F8739943EB6941EAC3011C
:102040000160106840F4807010606EB11068012E5D
:102050000ED040F080701060206840F0805020600A
:10206000FEF728FB05460EE0106840F48000F2E71A
:1020700040F40000EFE700BFFEF71CFB401B022806
:1020800001D9032094E720688000F5D548468FE702
:10209000284402582DE9F041044600680025C16833
:1020A000490617D4691EC160FEF704FB06464FF4CB
:1020B0007A78032708E000BFFEF7FCFA801B404552
:1020C00002D9032584F821702068C068400601D435
:1020D000032DF1D12846BDE8F08100002DE9F04143
:1020E000124C06460025E06820F08000E060A06801
:1020F0004FF00307800607D43046FFF74BFA90B144
:1021000086F8217003250EE0A06820F02000A06072
:102110003046FFF73FFA10B186F821700325A0681A
:1021200040F02000A0602846BDE8F0810040005843
:102130007047FEF7CDBA00000548016841F4700110
:10214000016003487838016841F010010160704770
:1021500088ED00E02DE9F04702682A4B2A4D2B4E0E
:102160002B4F2C4C4FF0804A984209D0504507D055
:10217000A84205D0B04203D0B84201D0A04204D159
:1021800022F0700C4A6842EA0C02DFF88CC0DFF8DB
:102190008C80DFF88C9098420FD050450DD0A8422B
:1021A0000BD0B04209D0B84207D0A04205D060455C
:1021B00003D0404501D0484503D122F44075CA6898
:1021C0002A434D6922F080022A4302608A68C26273
:1021D0000A688262984207D0A04205D0604503D0C9
:1021E000404501D0484501D10969016301214161A0
:1021F0000169C90703D0016921F001010161BDE84E
:10220000F08700000000014000040040000800408A
:10221000000C004000040140004001400044014027
:10222000004801402DE9F043056A026A22F00102EC
:102230000262436882691C4C25F0020522400C684A
:1022400022F0030214438A68194E2A43174D194F8E
:10225000DFF864C0DFF86490A84207D0B04205D030
:10226000B84203D0604501D0484506D122F00808A5
:10227000CA6842EA080222F00402A84207D0B0422B
:1022800005D0B84203D0604501D0484505D14D691D
:1022900023F440731D438B692B4343608461496879
:1022A00041630262BDE8F0838FFFFEFF0000014042
:1022B000000401400040014000440140004801404A
:1022C000F0B5056A026A22F0100202624268836970
:1022D000194C1B4E23400C6823F4407343EA04243A
:1022E00025F020038D6843EA0513144DA84201D060
:1022F000B04206D1CF6823F0800343EA071323F0EE
:102300004003A8420AD0B04208D00E4DA84205D0E2
:102310000D4DA84202D00D4DA84207D14D6922F4BF
:10232000406242EA85028D6942EA85024260846128
:10233000496881630362F0BDFF8FFFFE000001402A
:1023400000040140004001400044014000480140B9
:10235000F0B5056A026A22F4807202624368C269BB
:10236000194C1B4E22400C6822F00302144325F442
:1023700000728D6842EA0522144DA84201D0B04295
:1023800006D1CF6822F4006242EA072222F480627A
:10239000A8420AD0B04208D00E4DA84205D00E4D3A
:1023A000A84202D00D4DA84207D14D6923F44053F5
:1023B00043EA05138D6943EA05134360C461496824
:1023C000C1630262F0BD00008FFFFEFF000001400C
:1023D0000004014000400140004401400048014029
:1023E00030B5046A026A22F4805202624268C3690C
:1023F000124D24F400542B400D6823F4407343EA3B
:1024000005238D6844EA05340D4DA8420BD00D4DCF
:10241000A84208D00C4DA84205D00C4DA84202D0CD
:102420000B4DA84204D14D6922F4804242EA851244
:102430004260C36149680164046230BDFF8FFFFEE2
:102440000000014000040140004001400044014000
:102450000048014030B5056A026A22F48032026207
:102460004268436D114C23400C681C4325F4003333
:102470000D8943EA05430E4DA8420BD00D4DA842ED
:1024800008D00D4DA84205D00C4DA84202D00C4DED
:10249000A84204D14D6922F4803242EA052242600A
:1024A000446549688165036230BD00008FFFFEFF0F
:1024B0000000014000040140004001400044014090
:1024C0000048014030B5046A026A22F480120262B8
:1024D0004268436D114D24F400142B400D6843EA0B
:1024E00005230D8944EA05540D4DA8420BD00D4D2E
:1024F000A84208D00C4DA84205D00C4DA84202D0ED
:102500000B4DA84204D14D6922F4802242EA852273
:10251000426043654968C165046230BDFF8FFFFEBC
:10252000000001400004014000400140004401401F
:102530000048014070B5056A046A24F00104046291
:102540008469154EB04214D0B0F1804F11D0134EB3
:10255000B0420ED0124EB0420BD0124EB04208D054
:10256000114EB04205D0114EB04202D0104EB042D2
:1025700003D124F00304144301E044F001041A07DA
:1025800024F0F00444EA126225F00A0301F00A0183
:1025900019438261016270BD0000014000040040E7
:1025A00000080040000C00400004014000180040FA
:1025B0000040014030B5046A056A25F01005056247
:1025C000856925F4407545EA022222F470454FF6EC
:1025D000FF7202EA033224F0A0032A43A02404EA93
:1025E000011119438261016230BDFEE70907090E3E
:1025F000002804DB00F1E02080F80014704700F0B0
:102600000F0000F1E02080F8141D7047164808B54F
:10261000016841F000710160006800F000700090F6
:102620000120FEF74DF8FEF701F9012202210020FA
:10263000FEF704F90D480068C0F3031007280FD017
:102640000B48016841F001010160FEF749F8FFF70E
:1026500043FAFFF751FBFFF7AFFBFFF77FFBFEE706
:1026600003481038EDE70000E044025800ED00E0B8
:10267000146502584FF04070E1EE100A70470000F8
:102680000000010203040102030406070809000018
:10269000B02610080000001014000000D40210083A
:1026A000C4261008140000101C070000F0021008D7
:1026B0000100000010000000000000000090D003A6
:0426C0000090D003B3
:040000050810029944
:00000001FF
