:020000040800F2
:10000000B06F0024A503000853900008177E000875
:1000100051900008A7320008F1A700080000000076
:10002000000000000000000000000000A99B000884
:1000300019340008000000005F970008AB9B00081F
:10004000BF030008BF030008BF030008BF03000888
:10005000BF030008BF030008BF030008BF03000878
:10006000BF030008BF030008BF030008BF03000868
:10007000BF030008BF030008BF030008BF03000858
:10008000BF030008BF030008BF030008BF03000848
:10009000BF030008BF030008BF030008BF03000838
:1000A000BF030008BF030008BF030008BF03000828
:1000B000BF030008BF030008BF030008BF03000818
:1000C000BF030008BF030008BF030008BF03000808
:1000D000BF030008BDA30008BF030008BF0300085A
:1000E000BF030008BF03000800000000BF030008B2
:1000F000BF030008BF030008BF030008BF030008D8
:1001000031350008BF030008BF030008BF03000823
:10011000BF030008BF030008BF030008BF030008B7
:10012000BF030008BF030008BF030008BF030008A7
:10013000BF030008BF030008BF030008BF03000897
:10014000BF030008BF03000800000000000000001B
:10015000BF030008BF030008BF030008BF03000877
:10016000BF030008BF030008BF030008BF03000867
:10017000BF030008BF030008BF0300080000000021
:10018000BF030008BF030008BF030008BF03000847
:10019000BF030008BF030008BF030008BF03000837
:1001A000458A0008398A0008A9320008BF03000800
:1001B000E5970008BF030008BF030008BF0300085D
:1001C000BF030008BF030008BF030008BF03000807
:1001D000BF030008BF030008BF030008BF030008F7
:1001E000BF030008BF030008BF030008BF030008E7
:1001F000BF030008BF030008BF030008BF030008D7
:10020000BF030008BF030008BF030008BF030008C6
:10021000BF030008BF030008BF030008BF030008B6
:10022000BF030008BF030008BF030008C533000870
:10023000BF030008BF030008BF030008BF03000896
:10024000BF030008BF030008BF030008BF03000886
:10025000BF030008BF030008BF030008BF03000876
:10026000BF030008BF030008BF030008BF03000866
:10027000BF030008BF030008BF030008BF03000856
:10028000BF03000829350008BF0300080000000074
:10029000BF030008BF03000800F002F800F072F886
:1002A0000AA090E8000C82448344AAF10107DA45D1
:1002B00001D100F067F8AFF2090EBAE80F0013F0B1
:1002C000010F18BFFB1A43F001031847C87401005F
:1002D000E87401000A444FF0000C10F8013B13F0E1
:1002E000070408BF10F8014B1D1108BF10F8015B8F
:1002F000641E05D010F8016B641E01F8016BF9D182
:1003000013F0080F1EBF10F8014BAD1C0C1B09D1D8
:100310006D1E58BF01F801CBFAD505E014F8016B4A
:1003200001F8016B6D1EF9D59142D6D370470000DC
:100330000023002400250026103A28BF78C1FBD8EE
:10034000520728BF30C148BF0B607047662911F0C3
:100350001283642900F07081782900F0A981732943
:1003600000F0A185002070471FB511F0BBFA00F026
:10037000B5FD04000020002111F058FAE0601FBD17
:1003800010B510BD00F0AEFE1146FFF7EDFF0FF007
:1003900097F900F0CCFE03B4FFF7F2FF03BC0BF0BB
:1003A00077FF00000948804709480047FEE7FEE75D
:1003B000FEE7FEE7FEE7FEE7FEE7FEE7FEE7FEE715
:1003C00004480549054A064B70470000599C00083F
:1003D00099020008B05F0024B06F0024B0670024C9
:1003E000B0670024704753EA020C00F069802DE9E1
:1003F000F04B4FF00006002B1FBFB3FA83F503FA52
:1004000005F424FA05F65E4012BF1643B2FA82F5EF
:1004100002FA05F4C5F120051EBF22FA05FC44EAE4
:100420000C04203556EA044C4FEA144418BF641CEF
:100430004FF000084FF00009904271EB030C39D3E4
:10044000002919BFB1FA81F701FA07F6B0FA80F76F
:1004500000FA07F6C7F120071EBF20FA07FC46EA9C
:100460000C062037B6FBF4FCA7EB0507103F07F09E
:100470001F0BCBF120060CFA0BFB2CFA06F644BF3F
:10048000B3460026202FA4BF5E464FF0000B5BEA68
:10049000060C08BF4FF0010B19EB0B09ABFB027CFC
:1004A00048EB0608C01B06FB02CC0BFB03CC71EB30
:1004B0000C01C1E70B46024641464846BDE8F08BB9
:1004C00013B54FF000004FF00001AFF30080BDE81E
:1004D0001C40704710B54C1084EA530404D54042C8
:1004E000C1F1000138BF491E1B4204D55242C3F17D
:1004F000000338BF5B1EFFF776FF14F0804F04D077
:100500004042C1F1000138BF491E14F0004F04D031
:100510005242C3F1000338BF5B1E10BD0FB4044943
:1005200010B503AA029800F0C3FC10BC5DF814FBE0
:10053000AC0F00240FB41CB5084B06AA7B446946D7
:100540000090059800F07DFC04460020694600F00C
:100550008BFC20461CBC5DF814FB00002909000040
:100560000FB47CB50C0009AA009001D02044401EB5
:10057000084B7B4469460190089800F062FC0546F0
:100580001CB10020694600F06FFC28467CBC5DF879
:1005900014FB0000FD08000070B504468569006882
:1005A000C10601D5302600E02026C00707D070BD67
:1005B000D4E9012130469047206A401C20626D1E1C
:1005C000F6D570BD70B5044685690078C00707D1BF
:1005D00070BDD4E9012120209047206A401C206290
:1005E0006D1EF6D570BD70B50C460546012A05D0C6
:1005F0002878800600D5EA69002302E0012305E09F
:100600005B1C934202D2E05C0028F9D1A869E6188D
:10061000C01AA861286A184428622846FFF7BCFF60
:1006200004E0D5E9012114F8010B9047B442F8D356
:100630002846FFF7C7FF70BD2DE9F04106460024AC
:1006400010687529314616A510D0AFF30080002838
:1006500002DA404213A507E031688A0701D512A5E6
:1006600002E0490704D511A5012401E0AFF30080A1
:1006700000210A2206F1240709E0B0FBF2FCB0FBDE
:10068000F2F302FB1C00303078541846491C002855
:10069000F3D123462A463046BDE8F04100F064B964
:1006A000000000002D0000002B00000020000000D2
:1006B00070B504460D4621461068AFF300802188CE
:1006C000090502D50F4A7A4402E00E4A7A440E32F6
:1006D000002104F1240305E000F00F060009965DF7
:1006E0005E54491C0028F7D120780023000704D568
:1006F000702D02D009B1022311322046BDE87040AE
:1007000000F032B9566E01002DE9F05F89460446CB
:100710004FF0000ADFF824B1FB44C0F820A02046C7
:10072000E168884700287DD0252806D0D4E901213A
:100730009047206A401C2062F1E700255F46204672
:10074000E16888472028064607DB312E05D2B81914
:1007500010F8200C08B10543F1E7A80701D525F0F2
:100760000405C4F81CA00027C4F818A02A2E09D03C
:1007700030460AF04FFC38B304EB8708303EC8F827
:10078000186019E059F8041B204604EB87029161B8
:10079000E1688847012F064618D1E069002820DA71
:1007A00025F020051DE0D8F8180000EB800006EBCE
:1007B00040003038C8F818002046E16888470646EF
:1007C0000AF028FC0028EED1012F0AD02E2E08D1E5
:1007D0002046E16888477F1C0646022F45F0200529
:1007E000C4DBA069002803DA404245F00105A0619E
:1007F000E80701D025F01005A6B1A6F1410019289F
:1008000002D8203645F400654A4631462046256028
:100810004D46FFF79BFD60B1012807D0ED1D25F087
:10082000070000E007E000F1080978E705F1040996
:1008300075E730467AE7206ABDE8F09F2C6E01002C
:1008400040EA010310B59B070FD1042A0DD310C84D
:1008500008C9121F9C42F8D020BA19BA884201D99F
:10086000012010BD4FF0FF3010BD1AB1D30703D0E7
:10087000521C07E0002010BD10F8013B11F8014B9D
:100880001B1B07D110F8013B11F8014B1B1B01D1B9
:10089000921EF1D1184610BD10B5203AC0F00B8061
:1008A000B1E81850203AA0E81850B1E81850A0E874
:1008B0001850BFF4F5AF5FEA027C24BFB1E81850CE
:1008C000A0E8185044BF18C918C0BDE810405FEA3E
:1008D000827C24BF51F8043B40F8043B08BF7047BA
:1008E000D20728BF31F8023B48BF11F8012B28BFBF
:1008F00020F8023B48BF00F8012B70474FF0000280
:1009000000B5134694469646203922BFA0E80C5005
:10091000A0E80C50B1F12001BFF4F7AF090728BFE0
:10092000A0E80C5048BF0CC05DF804EB890028BF5C
:1009300040F8042B08BF704748BF20F8022B11F085
:10094000804F18BF00F8012B704770477047704701
:10095000704710B500F0C6FA006810BD10B5044627
:1009600000F0C0FA046010BD2DE9F0470D4699462D
:100970009246044600F124080168880604D5E0691F
:1009800021F01001216000E00120A84201DD471B99
:1009900000E00027A1697A1902EB0900081AA0619A
:1009A0002078C00602D42046FFF7F6FD002608E0B6
:1009B000D4E901211AF806009047206A401C761CF1
:1009C00020624E45F4DB2078C0060AD52046FFF7AA
:1009D000E3FD06E0D4E9012130209047206A401C65
:1009E0002062381EA7F10107F4DC07E0D4E90121F9
:1009F00018F805009047206A401C2062281EA5F1C7
:100A00000105F3DC2046FFF7DDFD2078000602D566
:100A10000220BDE8F0870120FBE770472DE9FF4F7A
:100A20000C461E464FF0FF378BB0D2E90001DDF8CF
:100A300060800A908A46C1F30A5505B93D460021F7
:100A400008464FF00000BAF1000F00F4400005DA4C
:100A500000EB80004FF4400101EA50004FEA90594A
:100A6000B9F1010F00DDB9460A9850EA4A000ED0EC
:100A700044F61050A5F2FF3545432F14B8F1000F8E
:100A80001ED07542291E1EDDC9F100021CE0B8F11E
:100A9000010F4FF0000001D0302103E0F24305E0E8
:100AA0002154401CB042FBDB30460022002121547F
:100AB0000B99C1F80880C1E900200FB0BDE8F08FA4
:100AC000BD1B6D1CDEE74A4600DA694206A800F04D
:100AD00093FA06AB93E8070003AB83E807005046A0
:100AE0000A9901F0A7FC8DE80700A0F500501F3817
:100AF00000900398002D0ADD42F21F014A46084487
:100B0000002303A90390684601F010FF09E0A0F557
:100B100000504A461F38002303A90390684601F09D
:100B20001AFF8DE807000004000C03D04FF0FF30DF
:100B3000410800E01046B8F1000F03D000220092F7
:100B400015461EE0751E05D400F0D0F9303262550E
:100B50006D1EF9D5B3460122084302D000227F1C46
:100B600004E02078302801D100227F1E002A099756
:100B700084D01DE0112D07DA00F0B8F9303262554B
:100B80006D1C50EA0102F5D1084302D00098C8B1AB
:100B90000EE00021681E05E0235C625C6354225471
:100BA000401E491C8142F7DBAB46A81B401E099042
:100BB000002004F80B000B98099AC0F80880C0E9DF
:100BC000002B7AE711264FF0000857E72DE9F04F88
:100BD00088460446D21D22F0070191B0D1E90001F8
:100BE000CDE90A0109F00CFE02460B98C00F01D0B6
:100BF0002D2007E02068810701D52B2002E020216D
:100C000001EAC000032A099001D0072A05DB034648
:100C10004146204600F0B0F90BE12078800601D56E
:100C2000E06900E00620B8F1650F814606D0B8F112
:100C3000660F18D0B8F1670F70D131E00020B9F11C
:100C4000110F009001DB112301E009F101030AAA51
:100C500001A90CA8FFF7E2FEDDE90C70002609F1FE
:100C60000105834647E001204B4600904FF00047C6
:100C70000AAA01A90CA8FFF7D1FEDDE90DB00C9975
:100C80005D46002610B909F101000D18B9EB050009
:100C900003D4C0F1FF3609F10105A5EB09002BE0F3
:100CA000B9F1010F01DA4FF001090020B9F1110F7C
:100CB0000090484601DD112300E003460AAA01A97D
:100CC0000CA8FFF7ABFEDDE90C704D46002683460D
:100CD000207800070AD4AB4500DA5D4601A8012D53
:100CE00004DD411911F8011C302907D04F4502DA03
:100CF00017F1040F04DA012082460FE06D1EEEE7C3
:100D0000002F02DCED1B3E4403E0781CA84200DD0E
:100D10007D1CB81B00F1010A4FF000472078000746
:100D200003D4AA4501DB4FF0FF3A0021B7F1004F91
:100D30000DF143088DF8431024D002202B23002FFF
:100D400001DA7F422D230A21021EA0F1010000DCFE
:100D50005FB197FBF1FC97FBF1F201FB1C7C17469E
:100D60000CF1300C08F801CDEEE7A8F1010003709A
:100D70002188090501D5452100E06521A0F1010880
:100D800000F8011C09980FA9A1EB0807FF1D00B18D
:100D90000120411901EBEA70A1693844081A401E8C
:100DA000A0612078C00602D42046FFF7F5FB099821
:100DB00028B1D4E901219047206A401C20622078A4
:100DC000C00622D52046FFF7E7FB1EE0002E04DB1D
:100DD000B34502DD01A8805D00E03020D4E90121A7
:100DE0009047206A401C2062761CAAF101005FEA4D
:100DF000000A0AD100F072F8C0680168405CD4E9CA
:100E000001219047206A401C2062281EA5F101059F
:100E1000DCDC07E0D4E9012118F8010B9047206AD7
:100E2000401C2062381EA7F10107F3DC2046FFF7C3
:100E3000C9FB032011B041E601694A1C0261087830
:100E4000704700B58FB0CDE901310021059105490A
:100E50007944CDE9031011466846FFF755FC0FB001
:100E600000BD0000E5FFFFFF0A6802F8010B0A6001
:100E70007047D1E900239A4202D2531C0B601070D4
:100E8000704710B5436913B1AFF3008001E0FFF77D
:100E9000AAFB012010BD127800F124010A70002283
:100EA0004A700122EDE711684FF0FF32E9E70000D8
:100EB000074B70B50D467B44FFF7C3FF0446284639
:100EC00000F00CF910B14FF0FF3070BD204670BD3E
:100ED0001BE4000000487047505F00240048704742
:100EE000705F002400487047505F002430B5B0F1B7
:100EF0000A024FEA900E71F100034EEA817EB0EBD8
:100F00000E0061EB91014FEA101E4EEA017E10EBDC
:100F10000E0041EB11114FEA102E4EEA016E10EB5C
:100F20000E0041EB11214FEA104E4EEA014E10EB3C
:100F30000E0041EB1141401841F100014FEAD00091
:100F400040EA41704FEAD10110EB80054FEA81047D
:100F500044EA907444EB01046D1944EB0404521B01
:100F6000A3414FF0000348BF0A3200D530BD401CFA
:100F700041F1000130BD00002DE9F0411F4604465B
:100F800003260168072A01F4006004DB08B116A5F6
:100F900005E016A503E008B115A500E015A521F0B0
:100FA00010002060A069C01EA0610FB1401EA061AA
:100FB0002046FFF7F1FA4FB1D4E9012138469047B6
:100FC000206A401C2062C01C206206E0206AFAE70A
:100FD000D4E9012115F8010B9047761EF8D220467E
:100FE000FFF7F0FABDE8F0814E414E006E616E00F1
:100FF000494E4600696E66002DE9F0478146164667
:101000008AB0354878440DC88DE80D0032487844E0
:10101000801C03AC0DC884E80D0041F69B300844E9
:10102000372190FBF1F290FBF1F5A5F1800501FB72
:1010300012041B3C02D56442012000E00020DFF8CE
:1010400098A080460027FA44AAF1BE0A0EE0E00705
:101050000AD03246684607EB470101230AEB8101BB
:1010600001F079FC8DE8070064107F1C002CEED1A4
:10107000194F7F44AE3F19E0E80715D007EB041085
:101080000DF1180A90E80E008AE80E00C068F042E0
:1010900001D1981908903246012306A903A801F04E
:1010A0005AFC03AB83E807006D10641C002DE3D1EC
:1010B0004FF0010332466946B8F1000F03A802D091
:1010C00001F034FC01E001F046FCC9E90001C9F877
:1010D00008200AB0BDE8F08710670100007B00F02F
:1010E000800070477546FFF7F5FEAE46050069467D
:1010F000534620F00700854618B020B5FFF760F989
:10110000BDE820404FF000064FF000074FF0000808
:101110004FF0000B21F00701AC46ACE8C009ACE889
:10112000C009ACE8C009ACE8C0098D46704710B5ED
:101130000446AFF300802046BDE81040FFF72BB90E
:101140004FF0013C50F8042B51F8043B9A4215D162
:10115000A2EB0C03934313EACC130BD150F8042BEE
:1011600051F8043B9A4209D1A2EB0C03934313EAD2
:10117000CC13E7D04FF00000704700BFD01A01BA7F
:10118000B1FA81F101F0180122FA01F0CB40C1F16E
:101190002001DBB2C0B2C01A2CFA01F3D11A91437C
:1011A00011EAC311E6D170472DE9F04F86B09DF8E2
:1011B000587000910392002F059318BF0123109CD3
:1011C00004FB033304930F9D14BF2F46012701979F
:1011D000BDF844305B0800F09F80DDF850B0139AF2
:1011E00002EB83030293DDF848E0039F5FEA9E0869
:1011F000DDF800C057F8046B57F8043B03971A4614
:10120000314622D05CF81E705CF8049B50F804ABA9
:101210002AFB096650F8045B2AFB071150F804AB5F
:1012200025FB07225CF81E7025FB09335CF8049B44
:101230002AFB09662AFB071150F8045B25FB0933DA
:10124000B8F1010825FB0722DCD10EF003078FB1AE
:101250003CF91E803CF902AB30F9025B0AFB0566E3
:1012600030F9029B09FB0A3308FB0511013F09FB1A
:101270000822EDDCDDF84CA0159F3AF9024B57F837
:1012800004CB5BF8045BC4F1150999EA040940F347
:10129000C8804FEA46064FEA410156FB05C651FB9E
:1012A00005C146FA04F641FA04F13AF9024B57F83F
:1012B00004CB5BF8045BC4F1150999EA040940F317
:1012C00099804FEA43034FEA420253FB05C352FBA6
:1012D00005C243FA04F342FA04F206F30706DDF806
:1012E0000490179CDDF810802670A04401F30701DC
:1012F00088F8001003F3070304F8093002F307022B
:1013000008F8092004EB49021792CDF84CA0029C82
:101310001597A2457FF467AF119B13F0010354D0DA
:10132000BDF848E0039BDDF800C019685FEA9E073E
:101330000CEB4E040E4615D05CF81E505CF8048B86
:1013400050F804AB50F8043B2AFB08662AFB051151
:101350005CF81EA05CF8048B23FB086623FB0A11D3
:10136000013FE9D11EF003070BD03CF81E303CF8DA
:10137000029B30F902AB19FB0A66013F13FB0A110D
:10138000F3DCDDF84CA0159FBAF90040D7F800C097
:10139000DBF80050C4F1150999EA040958DD4FEA59
:1013A00046064FEA410156FB05C651FB05C146FA08
:1013B00004F641FA04F106F30706179A049C167026
:1013C00001F307011155019B1A441199169B109CBA
:1013D00033B10F9B04F1020003FB1100104406E03F
:1013E000A2EB0100059A04F1020402FB040006B01E
:1013F000BDE8F08F002C42DD4FF0010909FA04F935
:101400004FEAA90953FB05934FEA430343FA04F358
:10141000634452FB05924FEA420242FA04F26244EC
:101420005BE7002C3CDD4FF0010909FA04F94FEAB3
:10143000A90956FB05964FEA460646FA04F66644A5
:1014400051FB05914FEA410141FA04F161442CE757
:10145000002C36DD4FF0010909FA04F94FEAA90919
:1014600056FB05964FEA460646FA04F6664451FBDB
:1014700005914FEA410141FA04F161449BE7C4F14F
:10148000010903FA09F303F31F0353FB15F302FAEF
:1014900009F202F31F0252FB15F2634462441CE797
:1014A000C4F1010906FA09F606F31F0656FB15F604
:1014B00001FA09F101F31F0151FB15F16644614482
:1014C000F3E6C4F1010906FA09F606F31F0656FB16
:1014D00015F601FA09F101F31F0151FB15F16644FC
:1014E000614468E700000000000000000000000008
:1014F0002DE9F04F99B014901391169212932998F8
:1015000000F00303032B0CBF0126002617960328C7
:101510000CBF01260026189610F00200259B00281B
:1015200014BF18460120109026980CBF06460126CD
:101530001196DDE92C04002C18BF20462C9026982B
:10154000012840F3BE814FEA4303299C14F0020FA7
:1015500001D14FF0020315934FF00008CDF834800D
:10156000DDF834B0239A02EB8B02B2F90030B2F905
:101570000240CDE90434229A02EBCB02D2E90012F8
:10158000CDE902122B9A02EBCB02D2E90012CDE98F
:101590000012002BCCBF00204FF0FF30152BC8BF2E
:1015A0000120002CCCBF00214FF0FF31152CC8BF0B
:1015B0000121CDE906012D9B002B00F09782289B8D
:1015C000002B40F0BB821A461846169901EBCB015E
:1015D000D1E9003403441444CDE90934129A249823
:1015E00018992A9B00291CBF0332D218DDF85090AD
:1015F0000B92401000F044810F930E900B9B279F9D
:10160000119A2C9EDDE909CEE246F34613440C9371
:101610005FEA271800F0948059F807502FFA85F4F4
:1016200056F8040B2FFA95F556F8041B24FB00AA74
:1016300025FB01AA56F8042B56F8043B24FB02BBF9
:1016400059F8044B25FB03BB2FFA84F52FFA94F4C9
:1016500025FB00CC56F8040B25FB02EE59F8075089
:1016600024FB01CC24FB03EE2FFA85F42FFA95F529
:1016700056F8041B24FB00AA56F8042B25FB01AAEC
:1016800056F8043B24FB02BB59F8044B25FB03BB73
:101690002FFA84F52FFA94F425FB00CC25FB02EEFB
:1016A00059F8075024FB01CC56F8040B24FB03EE39
:1016B0002FFA85F42FFA95F556F8041B24FB00AA9F
:1016C00056F8042B25FB01AA56F8043B24FB02BB69
:1016D00059F8044B25FB03BB2FFA84F52FFA94F439
:1016E00025FB00CC25FB02EE56F8040B24FB01CCB5
:1016F00059F8075024FB03EE2FFA85F42FFA95F5DD
:1017000056F8041B24FB00AA56F8042B25FB01AA5B
:1017100056F8043B24FB02BB59F8044B25FB03BBE2
:101720002FFA84F52FFA94F425FB00CC25FB02EE6A
:10173000B8F1010824FB01CC24FB03EE3FF76CAFAA
:1017400017F00F0046D0C7F38108B8F1000F26D07C
:1017500059F807502FFA85F42FFA95F556F8040B2F
:1017600056F8041B24FB00AA56F8042B25FB01AAFB
:1017700056F8043B24FB02BB59F8044B25FB03BB82
:101780002FFA84F52FFA94F425FB00CC25FB02EE0A
:1017900024FB01CC24FB03EEB8F10108D8DC17F0E0
:1017A0000308B8F1000F15D0279836F9023B36F937
:1017B000025B99F9001013FB01CC15FB01EE19F93E
:1017C000001013FB01AA15FB01BB09F10109B8F1D7
:1017D0000108EADC0B9D2E46179868B10F9A901EFF
:1017E00009DC0C9CC2F1020204EB42020C922A9A20
:1017F000104405F102050F9000980299049A069B87
:101800000C9F002B40F0C9804FEA4C0C4FEA4A0A6B
:101810005CFB010C5AFB010A4CFA02FC4AFA02FA80
:101820000CF3070C0AF3070A86F800C087F800A03B
:1018300001980399059A079BDDF84080002B40F042
:10184000D4804FEA4E0E4FEA4B0B5EFB010E5BFB62
:10185000010B4EFA02FE4BFA02FB0EF3070E0BF3DE
:10186000070B06F808E007F808B0119B279A05EB6C
:1018700043030B9391440E9B013B0E937FF4BEAE4A
:10188000CDF82090249B13F0010F40F0D680139BDD
:10189000279A03EB42031393129B159A1344129356
:1018A0002D9B23B12C9B279A03EB82032C930D9A3B
:1018B000269B4FEA630302F101020D9293423FF728
:1018C0004FAE269D15F0010560D0DDF8A880189D6B
:1018D000129E002D1CBF033646442499002955DD75
:1018E000CDF83C80169D269FA7F1010705EB870CDC
:1018F000DCF800C0229B03EB870424682B9B03EBDE
:1019000087000068239B03EB4707B7F90070289A0C
:10191000002FCCBF4FF000094FF0FF39152FC8BF83
:101920004FF00109149DDDF89CB0BBF1000FE646B5
:101930000CDDDDF84C8015F9013B18F901ABA3EB88
:1019400002030AFB03EEBBF1010BF4DCB9F1000F5B
:1019500040F064814FEA4E0E5EFB040E4EFA07FE25
:101960000EF3070E86F800E0299B13F0020F11D04A
:1019700013F0010F05D00F9B013B02D12A9B06F10A
:10198000020606F101060F930139CCDC002019B0E4
:10199000BDE8F08F269B1E44F6E7013314D04FF0CC
:1019A000010303FA02F34FEAA3035CFB013C4FEA95
:1019B0004C0C4CFA02FC84445AFB013A4FEA4A0AA6
:1019C0004AFA02FA82442BE7C2F101030CFA03FC43
:1019D0000CF31F0C5CFB11FC0AFA03FA0AF31F0A52
:1019E0005AFB11FA844482441AE7013314D04FF0B1
:1019F000010303FA02F34FEAA3035EFB013E4FEA41
:101A00004E0E4EFA02FE86445BFB013B4FEA4B0B47
:101A10004BFA02FB834420E7C2F101030EFA03FEF6
:101A20000EF31F0E5EFB11FE0BFA03FB0BF31F0BF5
:101A30005BFB11FB864483440FE7279FDDF8209072
:101A40002C9EDDE909CE5FEAA70818D059F8044BAF
:101A500056F8040B56F8041B56F8042B56F8043BB2
:101A60002FFA84F52FFA94F425FB00CC25FB02EE27
:101A700024FB01CC24FB03EEB8F10108E6DC17F0EF
:101A80000308B8F1000F0CD036F9023B36F9025BBF
:101A900019F9011B13FB01CC15FB01EEB8F101088C
:101AA000F2DC00980299049A069B109F0B9E374423
:101AB000002B40F099804FEA4C0C5CFB010C4CFA77
:101AC00002FC0CF3070C86F800C001980399059AF4
:101AD000079B002B66D14FEA4E0E5EFB010E4EFABD
:101AE00002FE0EF3070E87F800E0D0E61398279F5A
:101AF00000EB07092C9B032F11DD4FEAA70650F8D6
:101B0000041B59F8044B2FFA91F22FFA81F12FFAA6
:101B100094F82FFA84F4A3E81601013EEFDC17F0E5
:101B200003067FF74CAD10F9011B23F8021B19F9CE
:101B3000011B23F8021B013EF5DC40E5279E2C9A91
:101B40004FF000031846B11017D0B2E8801600FA23
:101B500087F000FAA7F000FA89F000FAA9F003FA7A
:101B60008AF303FAAAF303FA8CF303FAACF301390C
:101B7000EBDCC0F10000C3F1000316F003010BD051
:101B8000B2F90040A0EB0400B2F90240A3EB040359
:101B9000013902F10402F3DC289A02FB00F003FB96
:101BA00002F212E5013311D04FF0010303FA02F300
:101BB0004FEAA3035EFB013E4FEA4E0E4EFA02FED1
:101BC00086440EF3070E87F800E060E6C2F10103D9
:101BD0000EFA03FE0EF31F0E5EFB11FE86440EF39B
:101BE000070E87F800E052E601330DD04FF00103F5
:101BF00003FA02F34FEAA3035CFB013C4FEA4C0CEF
:101C00004CFA02FC84445CE7C2F101030CFA03FCC9
:101C10000CF31F0C5CFB11FC844452E77B1C0DD0C1
:101C20004FF0010303FA07F34FEAA3035EFB043E00
:101C30004FEA4E0E4EFA07FE864491E6C7F10103C5
:101C40000EFA03FE0EF31F0E5EFB14FE864487E6BB
:101C50002DE9F04F99B000BF149013911692129392
:101C60004FF00008CDF83480DDF834B0239A02EB51
:101C70008B02B2F90030B2F90240CDE90434229A65
:101C800002EBCB02D2E90012CDE902122B9A02EB51
:101C9000CB02D2E90012CDE9001213982C9B4FF031
:101CA0001006046C50F8041B2FFA91F22FFA81F100
:101CB0002FFA94F82FFA84F4A3E81601013EF0DC21
:101CC000289B2C9A4FF0000318464FF01001B2E801
:101CD000001700FA88F000FAA8F000FA89F000FA7C
:101CE000A9F003FA8AF303FAAAF303FA8CF303FACE
:101CF000ACF30139EBDCC0F10000C3F10003289A1A
:101D000002FB00F003FB02F2169901EBCB01D1E9D3
:101D1000003403441444CDE90934129A4FF005030A
:101D200002F103021A44DDF850900B924FF03E0787
:101D30000F930B9B2C9EDDE909CEE246F34603F19F
:101D400001030C934FF00408D9F840502FFA85F4A2
:101D500056F8040B2FFA95F556F8041B24FB00AA3D
:101D600025FB01AA56F8042B56F8043B24FB02BBC2
:101D700059F8044B25FB03BB2FFA84F52FFA94F492
:101D800025FB00CC56F8040B25FB02EED9F8405099
:101D900024FB01CC24FB03EE2FFA85F42FFA95F5F2
:101DA00056F8041B24FB00AA56F8042B25FB01AAB5
:101DB00056F8043B24FB02BB59F8044B25FB03BB3C
:101DC0002FFA84F52FFA94F425FB00CC25FB02EEC4
:101DD000D9F8405024FB01CC56F8040B24FB03EE49
:101DE0002FFA85F42FFA95F556F8041B24FB00AA68
:101DF00056F8042B25FB01AA56F8043B24FB02BB32
:101E000059F8044B25FB03BB2FFA84F52FFA94F401
:101E100025FB00CC25FB02EE56F8040B24FB01CC7D
:101E2000D9F8405024FB03EE2FFA85F42FFA95F5EC
:101E300056F8041B24FB00AA56F8042B25FB01AA24
:101E400056F8043B24FB02BB59F8044B25FB03BBAB
:101E50002FFA84F52FFA94F425FB00CC25FB02EE33
:101E6000B8F1010824FB01CC24FB03EE3FF76CAF73
:101E70000B9D2E460F9A901E09DC0C9CC2F10202AB
:101E800004EB42020C9200F1050005F102050F90EF
:101E900000980299049A0C9C4FEA4C0C4FEA4A0AAB
:101EA0005CFB010C5AFB010A4CFA02FC4AFA02FAEA
:101EB0000CF3070C0AF3070A86F800C084F800A0A8
:101EC00001980399059A4FEA4E0E4FEA4B0B5EFBC1
:101ED000010E5BFB010B4EFA02FE4BFA02FB0EF306
:101EE000070E0BF3070B86F8BDE084F8BDB005F1D3
:101EF00002030B9309F14009013F7FF41AAFCDF8BB
:101F00002090DDF820902C9EDDE909CE4FF01008DE
:101F100059F8044B56F8040B56F8041B56F8042BDA
:101F200056F8043B2FFA84F52FFA94F425FB00CCE5
:101F300025FB02EE24FB01CC24FB03EEB8F10108E3
:101F4000E6DC00980299049A0B9E4FEA4C0C5CFB6D
:101F5000010C4CFA02FC0CF3070C86F800C0019847
:101F60000399059A4FEA4E0E5EFB010E4EFA02FEF1
:101F70000EF3070E86F8BDE0139B03F18003139365
:101F8000129B159A03F5BD7312930D9A02F101028B
:101F90000D92202AFFF668AE002019B0BDE8F08F40
:101FA0002DE9F04F83B0DDF83CB0BBF1000FCCBFA2
:101FB0004FF0000C4FF0FF3CBBF1150FC8BF4FF0C6
:101FC000010CCDF800C0A0F104040194924699469A
:101FD000DDF840B00F46BDF830400BEB44020292F2
:101FE000002C00F0EA80A7F10407DDF80480D9F89E
:101FF00000E0D9F804C04FEA2A16002E09F10809BA
:1020000061D057F8040F58F8044F2FFA90F257F8A0
:10201000041F2FFA80F058F8045F2FFA91F320FB89
:1020200004EE2FFA81F123FB05CC22FB05EE57F8D5
:10203000040F21FB04CC58F8044F2FFA90F257F804
:10204000041F2FFA80F058F8045F2FFA91F320FB59
:1020500004EE2FFA81F123FB05CC57F8040F22FB85
:1020600005EE21FB04CC58F8044F2FFA90F257F8F4
:10207000041F2FFA80F058F8045F2FFA91F320FB29
:1020800004EE2FFA81F123FB05CC57F8040F22FB55
:1020900005EE21FB04CC58F8044F2FFA90F257F8C4
:1020A000041F2FFA80F058F8045F2FFA91F320FBF9
:1020B00004EE2FFA81F123FB05CC013E22FB05EE55
:1020C00021FB04CC9DDCCAF38106002E19D057F801
:1020D000040F58F8044F2FFA90F257F8041F2FFA04
:1020E00080F058F8045F2FFA91F320FB04EE2FFAEA
:1020F00081F123FB05CC013E22FB05EE21FB04CC44
:10210000E5DC0AF00306002E11DD07F1040708F1F3
:10211000040838F9024B17F9010B17F9011B10FBE2
:1021200004EE11FB04CC013EF3D1A7F104070E9895
:102130000F990D9D009E002E0CD14FEA4E0E4FEAD6
:102140004C0C5EFB005E5CFB005C4EFA01FE4CFA40
:1021500001FC26E0731C14D04FF0010303FA01F3D5
:102160004FEAA3035EFB003E4FEA4E0E4EFA01FE1D
:10217000AE445CFB003C4FEA4C0C4CFA01FCAC4416
:102180000FE0C1F101030EFA03FE0EF31F0E5EFB1A
:1021900010FE0CFA03FC0CF31F0C5CFB10FCAE44AD
:1021A000AC440EF3070E029B0CF3070C6CF30F2EDE
:1021B0002BF802EB9B457FF418AF03B0BDE8F08F1E
:1021C0002DE9F04F87B0DDF850B0BBF1000FCCBF68
:1021D0004FF0000C4FF0FF3CBBF1150FC8BF4FF0A4
:1021E000010CCDF818C0129DC5F1000ACAEA0A4ACE
:1021F000109C80460F469946DDF854B0A0F10405C6
:102200000495009222F00F050544A5F104050395FD
:1022100022F003050544A5F10405029502F003052B
:102220000595002C40F303810BEB44030193A7F1C8
:102230000407009B59F804EB59F804CBDDF8108033
:102240000F2B72DD039B57F8040F57F8041F58F843
:10225000044F2FFA90F62FFA91F54FEA34222FFA15
:1022600080F02AFA84F42FFA81F124FB00EE2AFA96
:1022700082F222FB06EE57F8040F24FB01CC57F83C
:10228000041F22FB05CC58F8044F2FFA90F62FFAC2
:1022900091F54FEA34222FFA80F02AFA84F42FFACB
:1022A00081F124FB00EE2AFA82F222FB06EE57F8B7
:1022B000040F24FB01CC57F8041F22FB05CC58F86F
:1022C000044F2FFA90F62FFA91F54FEA34222FFAA5
:1022D00080F02AFA84F42FFA81F124FB00EE2AFA26
:1022E00082F222FB06EE57F8040F24FB01CC57F8CC
:1022F000041F22FB05CC58F8044F2FFA90F62FFA52
:1023000091F54FEA34222FFA80F02AFA84F42FFA5A
:1023100081F124FB00EE2AFA82F222FB06EE24FB76
:1023200001CC984522FB05CC8DD1029B98451DD050
:1023300057F8040F57F8041F58F8044F2FFA90F677
:102340002FFA91F54FEA34222FFA80F02AFA84F41A
:102350002FFA81F124FB00EE2AFA82F224FB01CC51
:1023600022FB06EE22FB05CC9845E1D1059B002B14
:1023700017D007F1040708F10408129D18F9014B62
:10238000A4EB050417F9015B24B214FB05EE17F961
:10239000015B14FB05CCA3F10103002BEDDCA7F1DD
:1023A000040713981499119D069E002E0CD14FEA34
:1023B0004E0E4FEA4C0C5EFB005E5CFB005C4EFA7E
:1023C00001FE4CFA01FC26E0731C14D04FF001030F
:1023D00003FA01F34FEAA3035EFB003E4FEA4E0E01
:1023E0004EFA01FEAE445CFB003C4FEA4C0C4CFA4A
:1023F00001FCAC440FE0C1F101030EFA03FE0EF341
:102400001F0E5EFB10FE0CFA03FC0CF31F0C5CFBB2
:1024100010FCAE44AC440EF3070E019B0CF3070C0A
:102420006CF30F2E2BF802EB9B45FFF602AF07B0C3
:10243000BDE8F08F5FEA400C08BF91F0000F4FEA53
:102440008C234FEAC12243EA51514FEA1C5018BF76
:1024500000F5F0404FEA300018BF41F000415FEA5C
:102460006C5C00F02980BCF1FF3F08BF40F0804069
:102470007047130C06BF12044FF0100C4FF0000C05
:10248000130E04BF12020CF1080C130F04BF12014B
:102490000CF1040C930F04BF92000CF1020CD30F4B
:1024A00004BF52000CF1010C11464FF00002A0F1E4
:1024B0001F00A0EB0C00704711F0004F08BF7047E1
:1024C00031F000413FF4D5AF0B0C06BF09044FF0CB
:1024D000100C4FF0000C0B0E04BF09020CF1080C9D
:1024E0000B0F04BF09010CF1040C8B0F04BF890012
:1024F0000CF1020CCB0F04BF49000CF1010CCCF124
:102500002003A0EB0C0022FA03F302FA0CF241EADA
:10251000030100F10100704720F07F4C80EA0300C6
:1025200023F07F47ACEB070303F57C5300F000403A
:1025300003F1FF032DE980494FEA154B09B44FEA37
:10254000144325EA0B4E24EA03480FF2042606EB57
:10255000132749083E785FEA320203FB0667C7F596
:10256000000707FB06F64FEA54374FEAD64606F156
:10257000020607FB066CCCF1005C4FEA1C472CEA14
:10258000074C07FB06F40CFB06F504EB15464FEA77
:10259000961634BF00204FF000404FEAD13706FBBB
:1025A00007FC4FEA1C4C0CFB0BF7D21B03FB0CF790
:1025B00061EB07010CFB0EF7B0EB074072EB174223
:1025C0000CFB08F734BFA2EB0742B2EB074261EB0A
:1025D00017414FEA0C444FEA910706FB07FC4FEA0C
:1025E0001C4C0CFB0BF7B0EBC74072EB573203FBF4
:1025F0000CF734BFA2EBC742B2EBC74261EB5731D5
:102600000CFB0EF7B0EBC70072EB57720CFB08F730
:1026100034BFA2EBC702B2EBC70261EB5771039F55
:102620004FEA816141EA921104EBCC044FEAD137C1
:102630004FEA826206FB07FC42EA90124FEA806092
:102640004FEA1C4C0CFB0BF7D21B03FB0CF761EBA6
:1026500007010CFB0EF7B0EB074072EB17420CFBC7
:1026600008F734BFA2EB0742B2EB074261EB174118
:102670004FEA8C554FEA910704EB9C2406FB07FCBC
:102680004FEA1C4C0CFB0BF7B0EBC74072EB573218
:1026900003FB0CF734BFA2EBC742B2EBC74261EBBE
:1026A00057310CFB0EF7B0EBC70072EB57720CFB07
:1026B00008F734BFA2EBC702B2EBC70261EB577158
:1026C00015EB4C254FEA816141EA92114FEA826293
:1026D0004FEAD13742EA901206FB07FC44F10004AE
:1026E0004FEA80604FEA1C4C0CFB0BF7D21B03FB3C
:1026F0000CF761EB07010CFB0EF7B0EB074072EB38
:1027000017420CFB08F734BFA2EB0742B2EB0742BB
:1027100061EB174115EB1C154FEA813141EA9241FB
:102720004FEA823242EA90424FEA80304FEA0C761A
:1027300044F1000448EA03434EEA0B484FF0000E10
:10274000B2EB080C71EB030724BF624639464EEB2F
:102750000E0E4FF0000B0018524149414BEB0B0B92
:10276000B2EB080C71EB03077BF1000B24BF624650
:1027700039464EEB0E0E4FF0000B00185241494106
:102780004BEB0B0BB2EB080C71EB03077BF1000B6F
:1027900024BF624639464EEB0E0E51EA020718BFBF
:1027A00046F0010616EB0E7655F1000254F10001D9
:1027B00003D5BDE88901BDE80088BDE88901BDE811
:1027C0000048B619524141EB0101A3F101037047E2
:1027D00080807F7E7D7C7B7A79787776767574735E
:1027E000727171706F6E6E6D6C6C6B6A6A6968681D
:1027F000676666656464636362616160605F5F5EB3
:102800005E5D5D5C5C5B5B5A5A5959585857575628
:10281000565555555454535352525251515050508D
:102820004F4F4F4E4E4D4D4D4C4C4C4B4B4B4A4ADF
:102830004A49494948484847474747464646454523
:10284000454444444443434343424242424141415C
:10285000002B9C4630D477002BD01CB54FEA3707AD
:1028600003B44FF010004FF01001BAF1000F06D082
:10287000BCF1000FDCBF40F0080040F008014FF051
:1028800000000FBCBDE810400BF1010BBBF1010FC4
:1028900008BF5FEA170722BF12F1010211F101011F
:1028A0004FF0004143F1000300F0004043EA000014
:1028B0007047F9D35708D0E746EA064613F1400FB0
:1028C0004FEA16461FDD13F1200FDFBF16430A46FD
:1028D000002120335B42BED0C3F1200746EA064602
:1028E00002FA07F74FEA164646EA0706C3F1200741
:1028F00022FA03F201FA07F721FA03F14FF000037D
:1029000042EA0702A7E746EA020646EA06464FEA17
:10291000164646EA0106BCBF46EA0646360C4FF0AC
:1029200000034FF000024FF0000194E72DE9804CC6
:102930009A46934670B491E8380007C831EA400CD3
:1029400048BF34EA430C03D5FFF7E6FDFFF780FFED
:10295000F0BCBDE8008C2DE9804C9A46934670B4DB
:1029600091E8380007C810F0804F08BF13F0804F7F
:1029700003D100F005F8FFF76BFFF0BCBDE8008C59
:1029800020F07F4780EA030023F07F4C07EB0C0325
:10299000A3F57C5300F00040A3F1FE0392F0000F7A
:1029A00000F0B38095F0000F00F077802DE9014929
:1029B0004FEA11404FEA144621EA004800FB06FCAA
:1029C00024EA064708FB06F607FB08F800FB07F7B2
:1029D00018EB06484CEB164C4FEA124B18EB074825
:1029E0004FEA15464CEB174022EA0B4E0BFB06FC58
:1029F00025EA06470EFB06F607FB0EFE0BFB07F764
:102A00001EEB064E4CEB164C4FF000061EEB074E2D
:102A10004CEB174B18EB0B0840F1000018EB0E0BBA
:102A200058EB000840F100008F1A4FF000013CBF46
:102A3000C943661B14BFB5EB040C00213CBFC9435E
:102A4000F61B4FEA17444EEA8E0E27EA04454FEA7A
:102A50001C4704FB07622CEA074C05FB07F70CFB3D
:102A600005F604FB0CFC16EB074642EB174216EB8F
:102A70000C4642EB1C421BEB060658EB020241419E
:102A800046EA9E0601D5BDE80189B619524141EBDF
:102A90000101A3F10103BDE801894FEA14454FEAA2
:102AA000114724EA054621EA074C05FB07F406FB1B
:102AB00007F70CFB06F105FB0CFC11EB074144EB9F
:102AC00017444FEA124711EB0C4144EB1C4422EA35
:102AD000074C05FB07F206FB07F70CFB06F605FBA8
:102AE0000CFC16EB074642EB174216EB0C4642EB8A
:102AF0001C456A1854F1000148BF7047B61952418D
:102B000041EB0101A3F10103704795F0000F37D0AD
:102B10004FEA11424FEA144721EA024624EA074CE1
:102B200002FB07F106FB07F70CFB06F402FB0CFCAB
:102B300014EB074441EB17414FEA154714EB0C44E3
:102B400041EB1C4125EA074C02FB07F506FB07F7A2
:102B50000CFB06F602FB0CFC16EB074645EB174593
:102B600016EB0C4645EB1C42121951F1000148BF0F
:102B70007047B619524141EB0101A3F101037047BF
:102B80004FEA14454FEA114724EA054621EA074C6B
:102B900005FB07F106FB07F70CFB06F24FF00006FA
:102BA00005FB0CFC12EB074241EB174112EB0C4208
:102BB00051EB1C4148BF7047921841EB0101A3F152
:102BC0000103704702F0FEBA0F4970B5002408688F
:102BD000401E086015D10D4D4FF48051284602F07B
:102BE00017F94FF40051284602F012F9084801681D
:102BF00021F080010160074802F05AFB08B16FF034
:102C00000704204670BD000030100024000C02585C
:102C1000F4440258685B0024114A10480E4910B56C
:102C2000116000240168A1B901210160104602F081
:102C30005BFB70B90A4805F0EFF804F0EBF90949BD
:102C400005F056FA0146064806F046F908B16FF05D
:102C50000704204610BD0000001C0058301000245E
:102C6000685B0024A086010008B50093134601228A
:102C700005F016F9002806D0054802F033FB0428B9
:102C800002D06FF0030008BD6FF0650008BD0000C2
:102C9000685B002408B500931346012205F014F97F
:102CA000002806D0054802F01DFB042802D06FF072
:102CB000030008BD6FF0650008BD0000685B0024DC
:102CC000704700002DE9FF4F83B03B481D7B1C7D02
:102CD000039E2D0493F81890240493F81780C6EBF4
:102CE000C60C1E7FE34650F82C7000EB8B0A587F11
:102CF000DFF8C4C007FB021706EB0020DE7A997AE2
:102D0000ACF1A80CDAF8082001EB062102EB8206F0
:102D100006EBC2065A7B0CEB8606DAF810C005EB10
:102D200002659A7C01EB050ED97C5D7DF66D02EBA8
:102D30000122997D04EB05645D7E14444FEA09424B
:102D400001EB082802EB056507FB0C6900220292E3
:102D5000A0F12001082908EB050601D2002506E0B4
:102D6000A0F11001082901D2022500E00125711E01
:102D700003EB0E026143C0080190002701FB002015
:102D8000804612E023464A4601460398009505F026
:102D9000B7FD09487F1CDAF8102050F82B1001FB12
:102DA0000299019904FB11808046B742EAD3029848
:102DB00007B0BDE8F08F0000305D00242DE9FC4134
:102DC0001C461346134AC0EBC0050F19DDF820E07E
:102DD00002EB850652F82520B56897420D4F02FB9D
:102DE000031305EB850C36690CEBC505A7F1A807A5
:102DF00007EB8505ED6D06FB035500D9541A00213C
:102E00002246CDE9001E0123294605F0BBFD002026
:102E1000BDE8FC81305D00242DE9FC41144DC0EB80
:102E2000C007DFF84CC005EB8704DDF820E0ACF10B
:102E3000A80C55F82750A66805FB021106EB86077B
:102E400007EBC607266964680CEB870702EB030CE7
:102E5000A445FF6D06FB017100D9A31A6D1E012266
:102E6000CDE9005E05F08EFD0020BDE8FC8100008C
:102E7000305D00242DE9FF4F8B46134900261D4687
:102E80000098DDE90D7AC0EBC00001EB800915E088
:102E90000298002400EB06080DE0E8780BEB040133
:102EA0002B68424660F31F63009800F0C7F8D9F81A
:102EB0001000641C0544BC42EFD3761C5645E7D392
:102EC00004B00020BDE8F08F305D00242DE9FC4106
:102ED000114EC0EBC0051C4606EB8503DDE9087CFE
:102EE00056F82550A83ED3F808E01B6905FB0211EF
:102EF0000EEB8E0202EBCE022D1B06EB8202D26D90
:102F000003FB0121CDE9005C3B46224605F03AFD7A
:102F10000020BDE8FC810000305D002400284FF057
:102F2000000001D0801E7047014AD2680A607047D5
:102F3000305D002400284FF0000001D0801E704753
:102F4000044A1268526C002AF9D0034A12680A60D7
:102F50007047000038100024305D002400284FF036
:102F6000000001D0801E7047044A1268926C002A4B
:102F7000F9D0034A52680A607047000038100024F4
:102F8000305D002470B50F4DC0EBC0000D4EA5F1B3
:102F9000A80405EB800556F82000AD6802FB001080
:102FA00005EB850606EBC50104EB81018A6CC96D52
:102FB00022B131F810001860002070BD51F82000D7
:102FC000F9E70000305D0024144810B586B00168B0
:102FD00041F04001016000680322114C082100F01B
:102FE000400005900120CDE90202CDE900106946BC
:102FF000204601F0C5FF00222046082102F0D6F845
:10300000142001F06DFE01222046082102F0CEF8C6
:103010000A2001F065FE06B010BD0000E044025831
:103020000018025800284FF0000001D0801E7047A1
:10303000014A916070470000305D002470B50E4D6C
:10304000C0EBC0000C4EA5F1A80405EB800556F8B6
:103050002000AD6802FB001005EB850606EBC501FC
:1030600004EB81018A6CC96D1AB121F8103000207F
:1030700070BD41F82030FAE7305D0024F0B5044619
:103080001248002587B0016841F480710160006832
:1030900003220F4E00F480700E4F0590012056F869
:1030A0002410CDE90010CDE9020257F8240069464A
:1030B00001F066FF36F82410012257F8240089B287
:1030C00002F074F807B02846F0BD0000E044025852
:1030D000DC480108E40F00247047000070B510B10F
:1030E0006FF0010070BD124806F0AAFC104805F010
:1030F0002FFF10B14FF0FF3070BD0D4800210822A6
:1031000040F20364F838302596010323C0E90241F8
:10311000C0E90415C0E90616C0E900230146F830ED
:1031200005F0D6F90028E7D06FF0040070BD00006C
:10313000445E002470470000FEB50C464FF00005C9
:1031400008B1AD1E48E02748694600680269254875
:10315000001D00689047002802DA6FF004053BE08C
:10316000214A0020009999B39368DDE901101E07F8
:1031700001D5014601989E0702D51669711A491EAC
:103180005B0702D55369181A401E136816694B4332
:10319000B3FBF6F16160536856694343B3FBF6F342
:1031A000A360009820609069814201D90E1A00E066
:1031B000461A176ABB4201D9DB1B00E0FB1AD7682D
:1031C000B74201D39F4204D29161A068106203E02C
:1031D00004E06060106AA0602846FEBD206090692F
:1031E000F7E7000040100024785E0024FEB50700D9
:1031F0000C464FF000060FD1216869B1B1F5487F48
:103200000AD8606840B1B0F5F07F05D8814200D897
:103210000846E168884202D26FF0010637E038467E
:1032200000F016FB10B14FF0FF3630E0194D694643
:103230002068286060686860A068A860E068E8604E
:1032400015480068C2691448001D006890470028AE
:1032500002DA6FF004061AE00198286102986861AA
:1032600007EB870005EBC0025FF00000E56823680C
:1032700002EB80012B4403F101038B61401CE568E4
:10328000022863682B4403F101030B62EED330463E
:10329000FEBD0000785E002440100024002010B520
:1032A000FFF71AFF10BDFEE7014800F02DBC00003B
:1032B000444F0024F0B5059C44EA034503685C6C68
:1032C00004F040442C435C640368DA634268B2F55E
:1032D000403F05D00068B2F5802F37D0C160F0BD07
:1032E00001F47F42856801F47F04224301F07F43AB
:1032F00001F47F0701F47F46CCB2BDB1012D16D099
:1033000001F47F02C1F3C401D20C022D11D0032DB0
:1033100014D0310B3A0D09011B0F41EA0222210999
:1033200042EA03320A4300688263F0BD1A43224333
:10333000F9E7B30A5B0143EAC222F3E7F40ADB0FC1
:10334000640144EA822242EAC332EBE74161F0BD04
:1033500010B542EA811141EA0321029C41EA04418D
:10336000C16610BD3EB5062500240095CDE90112C9
:103370000146044801F0F8FB08B16FF0070420464D
:103380003EBD0000045C00247CB5012B4FF000041E
:103390006FF0070508D8D25C0B460146084800923A
:1033A000152201F069FC06E0CDE900123922014640
:1033B000034801F023FB00B12C4620467CBD0000F1
:1033C000045C0024014801F09FB90000045C002463
:1033D0002DE9F0479846164689460446DDF820A0B8
:1033E00001F0F0FE4FF47A77054607E001F0EAFEBF
:1033F000401BB84202D90320BDE8F0872068406F27
:10340000C007F3D0226846EA891141EA082141EA5F
:103410000A40D0660020EFE7704700002DE9F74F23
:10342000DFF800A10025A6B00DF1640BDAF80C104E
:103430000AEB411080688488C788E01D814620F02F
:103440000700061B68E000BF4FEAD9012898012950
:1034500001FB050015D0022915D001784278837848
:10346000080440EA02201843DAF80C200AEB421262
:10347000D16902294FF0000108D001230DF1040E9B
:103480003EE00078F0E7008840BAEDE74FF0010E2B
:103490001AE000BFA4EB010CB444ACF1010C0EFA2D
:1034A0000CF3034201D0136800E05368C3F307280C
:1034B000C3F3C40C4FEA9808DB0C4CEA481C4CEAF6
:1034C000C32C2BF811C0491CA142E3D3279919AA98
:1034D0002346CDF800E0481C279019E0A4EB010C2E
:1034E000B444ACF1010C03FA0CFC1CEA000F02D04E
:1034F000D2F8008001E0D2F804804EF82180491C07
:10350000A142EBD32799724600932346481C27908B
:10351000269807F0CFF86D1CBD4295D329B0BDE8C1
:10352000F08F0000E45E0024704772B6FEE70000F2
:10353000014804F0DEB80000AC4F0024F0B5D1E93A
:103540000843CD690A68C2B10268254322F4F842F3
:1035500013431D430560D1E90125D1E903364C69C8
:103560002A434568334389691A43EB0B2243DB0343
:103570000A431A4342600020F0BDD1E9012ED1E98F
:10358000036CD1E9057142EA0E0246EA0C063243A9
:103590003A430A4301682A4322431A436FF30E0158
:1035A0000A430260E7E7426943F6FE739A4342EA40
:1035B000410141610020704770B591E81C00C96865
:1035C0006FF01F0506691A4305EB441444EA4121D4
:1035D0000A4306EA45431A430261002070BD000019
:1035E0002DE9F04F8B8A6FF00F05264C4FF07F4B83
:1035F000D1F80C9004EB03536FF0FF044FEA042A58
:103600001AB386684FEA09321F4FA2F580521A4357
:103610003E4032438260D1E900278E68521E05EB9E
:1036200007150F8A2A43C56804EB06240E7E0AEBB1
:10363000074322431A430BEB06610A4305F070432C
:103640001A43C2600020BDE8F08F91E804110F4ECC
:10365000521E0F8A05EB08152A4304EB0C2C06EBCF
:1036600009350E7E42EA0C022A4385680AEB0744BC
:1036700022431A430BEB06610A4305F070431A43D9
:103680008260DFE70000F0FFFF0F0FFF00F0FFFF99
:103690000020704790F82410012902D1002180F801
:1036A00024100020704708B5183069460BF080FEE2
:1036B00010B14FF0FF3008BD9DF800000228FAD984
:1036C000002008BD002118300BF03DBE012118304C
:1036D0000BF039BE70B518300C46097806460BF071
:1036E00057FE2179054630460BF040FE0544217A0D
:1036F00030460BF044FE0544217B30460BF008FEBB
:103700000544217C30460BF00CFE0544217D3046FB
:103710000BF010FE401901D04FF0FF3070BD30B5F6
:1037200001250D704FF4F07200244C7002238B7051
:103730004FF44870C1E90102204630BD18300BF04B
:103740000BBEFEB500250C460646FFF7ACFF0C236A
:103750006A460321206006F118000BF022FE08B132
:103760006D1E39E09DF800109DF8010001F00F0179
:1037700040EA012060609DF802109DF8030001F00E
:103780000F0140EA0120E0609DF800008009E0613F
:103790009DF8040060619DF80500000960629DF8D5
:1037A00006109DF8070001F00F0140EA0120A0601B
:1037B0009DF808109DF8090001F00F0140EA012072
:1037C00020619DF80600800920629DF80A00A06132
:1037D0009DF80B000009A0622846FEBDF8B5002543
:1037E0000C460646FFF75FFF04236A46032120606C
:1037F00006F118000BF0D5FD08B16D1E11E09DF823
:1038000000109DF8010001F00F0140EA0120606006
:103810009DF802109DF8030001F00F0140EA01201D
:10382000A0602846F8BD0020704710B590F824101D
:103830000446002000290AD1206880472046FFF76F
:1038400041FF012184F82410002800D0881E10BDFB
:103850002049F0B58DB00746D1E90101002407AE3B
:103860006FF00405CDE907011B4800901B4801904B
:103870001B4804901B4803901B480590694636F886
:103880002400ADF80800194800F040F810B16FF0BE
:1038900007001AE0154806A900F02EF8A0B906980E
:1038A000112802D06FF006000FE0104809A9FFF7B9
:1038B00036FF0F490D480A1F41F827000D491160D6
:1038C00009688847002803D02846641C022CD5D3F9
:1038D0000DB0F0BD98490108192C0008C92B00084B
:1038E000692C0008952C0008C52B0008A05E002458
:1038F000441000245410002438B518300C46694692
:103900000BF0FAFC9DF80010216038BD4FF0FF323B
:1039100010B598B10B6803604C6844600C89048151
:10392000CC68C4600C690461496941610449C161A2
:103930000449816100620BB198470246104610BDF0
:10394000319A0008F3A70008F0B50446C8074FF005
:10395000000010D01E23012603F01F0706FA07F50A
:103960000D4201D15B1EF7D27AB1082A0BD0102A82
:1039700006D0182A01D00120F0BD072BFBD204E0AD
:10398000082BF8D201E0102BF5D223685961216889
:103990008B6823F0180313438B60F0BD10B504004F
:1039A00010D0607F20B900202077204600F032F848
:1039B00021790220607739B1D4E902122046FFF75D
:1039C000C3FF48B1012010BD21681148486120683B
:1039D000816821F0180181606079A0B121682069B7
:1039E0000861012220686369816821F06001194340
:1039F00081602068A369816821F08001194381609A
:103A00006277002010BD21684FF0FF30E8E700002A
:103A1000B71DC10408B500680649884208D10648A8
:103A2000016841F400210160006800F4002000906A
:103A300008BD0000004C0258E044025870470000E6
:103A4000F0B590F86020012A22D0C1EBC102012715
:103A500080F86070022380F8613000EB8202284D0C
:103A6000138F168EB2F83CC0D46A1B05283244EA84
:103A7000064643EA4C530A2C46EA03060AD0092CB0
:103A800008D0137B46EA036349B10B2C1AD01DE022
:103A90000220F0BDD36803F07F433343F4E70168AD
:103AA0004C6AAC431C434C62016813688B615168DB
:103AB0000A2901D009291BD1D168026821F07F4170
:103AC000916215E0118B0F4D43EA81430168CC6987
:103AD000AC431C43CC61016813680B6151680A292F
:103AE00001D0092904D1D168026821F07F41116217
:103AF000002180F8617080F860100846F0BD000079
:103B00000F0033FF0F003FFF2DE9F0470446006828
:103B100000274FF004084FF0010946680568F107D7
:103B200014D0E90512D5036823F480730360606E36
:103B300040F0010060662068C0F8089084F8618059
:103B400084F86070616A09B120468847B00615D5CF
:103B5000A80413D520682022036823F400530360CF
:103B600020688260606E40F00200606684F86180C8
:103B700084F86070616A09B120468847300715D51E
:103B8000280513D520680822036823F40063036026
:103B900020688260606E40F00400606684F8618096
:103BA00084F86070616A09B12046884770070CD5B7
:103BB00068050AD52068026822F4806202602068E5
:103BC000C0F80880204600F071F8B00713D5A805AA
:103BD00011D520680222036823F400730360206873
:103BE0008260606E606684F8619084F86070216A1B
:103BF00009B120468847F00612D5E80410D52068A0
:103C0000016821F480510160226810219160616E89
:103C1000616684F86190204684F86070FFF70EFFBB
:103C2000BDE8F0872DE9F041040004D094F861006C
:103C3000002518B107E00120BDE8F081204684F896
:103C4000605000F035F8184E022084F8610001231E
:103C5000D4E90010D4F81CC040F207120F6840EA03
:103C60000C003740384308602068A769A168466B9C
:103C700039439643314341632068E268016C6FF336
:103C80000F01114301642068218AA28A466B09054D
:103C900041EA425126F4401211434163656684F8BB
:103CA00061300020C8E70000BFFFF8FF7047000048
:103CB00008B500680B49884212D10B48016841F0F1
:103CC0001001016000680022012100F01000009046
:103CD0005A2001F065FFBDE808405A2001F053BFAB
:103CE00008BD000000100052D44402582DE9F843EA
:103CF0000026044604270D4600964FF0030800688E
:103D00000068C00726D001F05DFA81461EE04068D9
:103D1000009010F0210F10D00098800603D5606E3F
:103D200040F0020060660098C00703D0606E40F06B
:103D3000010060662168212035E0681C06D001F092
:103D400041FAA0EB0900A8424DD8A5B3206841680C
:103D50008907DCD52068C169406A01F0200100F0C4
:103D60002000084335D001F02DFA81462DE040684F
:103D7000009010F0290F1FD00098000703D5606E47
:103D800040F0040060660098800603D5606E40F045
:103D9000020060660098C00703D0606E40F001002A
:103DA000606621682920886084F86170012084F8A9
:103DB0006060BDE8F88316E0681C06D001F002FAE6
:103DC000A0EB0900A8420ED86DB120684168C90671
:103DD000CDD5226812210120916084F86100002075
:103DE00084F86060E5E7616E84F8606041F020016E
:103DF000616684F861800320DBE7F8B50446069825
:103E000094F86050012D10D0012684F860600225DE
:103E100084F8615000902046FFF74CFA2068016852
:103E200041F0010101600020F8BD0220F8BD000052
:103E30002DE9F84F044601F0C5F900903CB194F823
:103E40003500022806D0802161650020E4E00120D1
:103E5000BDE8F88FC74DC74EC649183520683036C3
:103E6000DFF81483DFF814938842DFF814A3DFF837
:103E700014B32ED0A8422CD0B0422AD0404528D02E
:103E8000484526D0504524D0584522D0BD4A183246
:103E900090421ED0BC4A90421BD0BB4A183290427E
:103EA00017D0B94A3032904213D0B74A48329042C4
:103EB0000FD0B54A603290420BD0B34A783290426C
:103EC00007D0B14A9032904203D0AF4AA832904214
:103ED00009D1026822F01E0202602068426922F0C5
:103EE0008002426103E0026822F00E02026027684D
:103EF0008F4238464DD0A8424BD0B04249D04045C1
:103F000047D0484545D0504543D0584541D09D4ABB
:103F1000183290423DD09C4A90423AD09A4A183288
:103F2000904236D0984A3032904232D0964A483247
:103F300090422ED0944A603290422AD0924A7832EF
:103F4000904226D0904A9032904222D08E4AA83297
:103F500090421ED08D4A90421BD08C4A143290421F
:103F600017D08A4A2832904213D0884A3C32904275
:103F70000FD0864A503290420BD0844A643290422D
:103F800007D0824A7832904203D0804A8C329742DE
:103F900004D1206E026822F48072026075492068A4
:103FA000884228D0A84226D0B04224D0404522D012
:103FB000484520D050451ED058451CD07149183175
:103FC000884218D07049884215D06F49183188420C
:103FD00011D06D49303188420DD06B49483188424B
:103FE00009D069496031884205D0674978318842F3
:103FF00001D065499031016821F0010101600EE0B6
:1040000001F0E0F80099401A052808D920226265DD
:104010000321002084F8351084F8340017E738684D
:10402000C007EDD1534A0121206890422ED0A8420A
:104030002CD0B0422AD0404528D0484526D0504503
:1040400024D0584522D04F4B183398421ED04E4BA7
:1040500098421BD04C4B1833984217D04A4B303300
:10406000984213D0484B483398420FD0464B6033A8
:1040700098420BD0444B7833984207D0424B903350
:10408000984203D0404BA833984208D194F85C7012
:104090003F23A06D07F01F07BB40836007E094F843
:1040A0005C30A06D03F01F0301FA03F34360206846
:1040B00090424DD0A8424BD0B04249D0404547D065
:1040C000484545D0504543D0584541D02D4A183237
:1040D00090423DD02C4A90423AD02B4A183290421E
:1040E00036D0294A3032904232D0274A4832904264
:1040F0002ED0254A603290422AD0234A783290420C
:1041000026D0214A9032904222D01F4AA8329042B3
:104110001ED01E4A90421BD01C4A1432904217D027
:104120001A4A2832904213D0184A3C3290420FD09B
:10413000164A503290420BD0144A6432904207D053
:10414000124A7832904203D0104A8C3290420BD1FE
:10415000D4E919024260E06E30B1026822F4807244
:104160000260D4E91C024260002084F8351084F813
:1041700034006DE61000024058000240700002401A
:1041800088000240A0000240100402400854025877
:104190002DE9F05F28B190F83510022904D0802174
:1041A00041650120BDE8F09F904C904B0168183CA0
:1041B00018338E4ADFF83C92A1428D4CDFF838E28A
:1041C0008E4FDFF83CB2DFF83CA28F4D8F4E31D0DE
:1041D00091422FD099422DD0A1422BD0494529D0D0
:1041E000714527D0B94225D0DFF810C20CF1180C68
:1041F00061451FD0DFF808C2ACF1600C614519D0F1
:10420000DFF8FCC1ACF1480C614513D0DFF8F0C118
:10421000ACF1300C61450DD0DFF8E4C1ACF1180C05
:10422000614507D0594505D0514503D0A94201D079
:10423000B1422CD1DFF8B4C14FF0040880F83580CA
:10424000ACF1180C61451DD091421BD0994219D098
:10425000A14217D0494515D0714513D0B94211D0AC
:104260006648183081420DD065486038814209D0D7
:1042700063484838814205D061483038814201D0D6
:104280005F481838086820F001000860ABE0D1F8FA
:1042900000C02CF00E08DFF854C1C1F80080ACF16A
:1042A000180C0168614527D0914225D0994223D04E
:1042B000A14221D049451FD071451DD0B9421BD024
:1042C000DFF838C10CF1180C614515D0DFF830C1AA
:1042D000ACF1600C61450FD0DFF824C1ACF1480CA3
:1042E000614509D0DFF818C1ACF1300C614503D04D
:1042F000DFF80CC1ACF1180CD1F800C02CF0010CA7
:10430000C1F800C0DFF8E4804FF0010C0168A8F1AB
:104310001808414546D0914244D0994242D0A1422A
:1043200040D049453ED071453CD0B9423AD0334A9D
:104330001832914236D0324A603A914232D0304AF5
:10434000483A91422ED02E4A303A91422AD02C4AF5
:10435000183A914226D0594524D0514522D0A9423D
:1043600020D0B1421ED02A4A91421BD0284A143292
:10437000914217D0264A2832914213D0244A3C3227
:1043800091420FD0224A503291420BD0204A6432DF
:10439000914207D01E4A7832914203D01C4A8C3297
:1043A000914218D1016E0A6822F480720A6090F876
:1043B0005C20816D02F01F020CFA02F24A60D0E923
:1043C00019124A60C16E31B10A6822F480720A6023
:1043D000D0E91C124A600022016D80F835C080F8D7
:1043E000342001B188470020DCE6000028000240AC
:1043F000580002407000024088000240A0000240C5
:104400007004024088040240A0040240B804024044
:1044100008540258F0B5027C012A7DD001220274B2
:1044200002680024536B43F0010353630268D2F81F
:10443000003423F00103C2F800340268D2F80034DB
:1044400043F00103C2F800340268D36823F0030389
:10445000D36002680D68D3682B43D3600268536948
:1044600023F0070353610368D1E906564F695A697F
:104470003D4332432A435A610268136923F00F0314
:10448000136102684D6813692B4313610268D2F807
:10449000003423F00E03C2F8003402684B68D2F8EF
:1044A000005445EA4303C2F800340268536E6FF3C8
:1044B0000F03536602688D68536E2B435366026880
:1044C000D2F8003423F0F003C2F800340368D1E9D5
:1044D0000327D1E908653A433543D3F800642A43FA
:1044E0003243C3F800240268936E23F001039366FD
:1044F00002688B6A916E194391660168D1F80824AD
:1045000042F00102C1F808240168D1F8082442F001
:104510000202C1F8082400E002E004740020F0BDAB
:104520000220F0BDF0B5027C012A30D001220274D5
:1045300002684FF0000E174C936E2340936691E88B
:104540009400D1E9036C2243374301F114033A4349
:1045500042EA0C0293E8F8101A4303682243CC6A3B
:104560002A4332439D6E3A4342EA0C0222432A43D5
:104570009A660268936E23F00203936602680B6BDF
:10458000916E1943916680F810E00020F0BD022082
:10459000F0BD0000FF80F0FE10B5027C012A0ED0B5
:1045A0000122027402680024D36A23F01F03D3623D
:1045B0000268D36A0B43D3620474204610BD022004
:1045C00010BDF0B5027C012A3BD001220274D1E972
:1045D0000023934200D91A460368002442EA0245A8
:1045E000D3F8982002F0FC22C3F898200268D2F891
:1045F00098302B43C2F898300268D2F89C3003F40C
:104600000043C2F89C3003688D890F7A0E6953F815
:104610009C2F2D04324345EA07652A431A6002683D
:10462000D2F8A43023F47F43C2F8A4300268496969
:10463000D2F8A43043EA0121C2F8A4100474002087
:10464000F0BD0220F0BD38B504003FD003206074F7
:1046500020680025D0F8041421F00801C0F80414E3
:104660002068D0F8041401F008010091416821F09D
:10467000010141602068416801F001010091D0F81A
:10468000A01021F00601C0F8A0102068D0F8301466
:1046900021F00101C0F830142068D0F8301401F086
:1046A00001010091D0F8301421F08071C0F830146D
:1046B0002068D0F8300400F080700090204600F0B0
:1046C000FFF9656165740020257438BD012038BD8F
:1046D0007047704710B5027C012A13D00122027482
:1046E00002680023D2F81C4424F48004C2F81C445D
:1046F0000268D2F81C4444EA8151C2F81C140374C5
:10470000184610BD022010BD10B504460068D0F850
:104710000C14C90709D0D0F80814C90705D0012125
:10472000C0F81014204600F0DAFA2068D0F80C1413
:10473000890709D5D0F80814890705D50221C0F8E2
:1047400010142046FFF7C4FFA069002851D020684C
:10475000D0F8BC30D0F8C410D0F8C020D0F8C800D1
:1047600019400B0400EA02001B0C03D0626942F0FE
:104770000102626111F4F81F03D0616941F0020186
:104780006161C10703D0616941F004016161810782
:1047900003D5616941F00801616110F00C0F03D08D
:1047A000616941F010016161C10603D5616941F0A1
:1047B00020016161810603D5616941F040016161B9
:1047C000410603D5616941F080016161010603D5AD
:1047D000616941F48071616110F4F85F03D0606930
:1047E00040F4007060616069002802D02046FFF745
:1047F00070FF10BD2DE9F84304000D4602D0607C27
:1048000018B105E00120BDE8F883204600F06AF900
:104810000320607420684FF00009D0F8301441F094
:104820008071C0F830142068D0F8300400F0807037
:10483000009000F0C7FC4FF47A77064605E000BF11
:1048400000F0C0FC801BB84235D82068D0F80C04BA
:10485000C004F5D52068674AD0F830141140C0F87C
:1048600030142068D5E900212B89D0F830644FEA54
:10487000C12C46EA82014CEA03421143C0F83014CD
:104880002068D0F8301441F00101C0F830142068DD
:10489000D0F8300400F001000090012000F020FA70
:1048A00000F090FC0646B84607E000BF00F08AFC26
:1048B000801B404501D90320A5E72068D0F80C04EF
:1048C000C005F3D520684E46416841F001014160C2
:1048D0002068416801F001010091816821F0FF0129
:1048E00081602068A2688168114381602068D0F8E7
:1048F000A01041F00201C0F8A0102068D0F8A0106C
:1049000041F00401C0F8A0102068D0F8A41021F0F4
:104910000301C0F8A4102068E268D0F8A410114385
:10492000C0F8A41000F04EFC07462068D0F8A400A0
:10493000800715D0C1464FF094082168D1F8B01017
:1049400038EA010014D000F03DFCC01B4845F4D902
:104950002674B0E700F036FCC01B404502D9F7E7EB
:104960004FF014092168D1F8B01039EA0100F1D1F3
:10497000686800B90120204F22682B7A29687843A3
:10498000D2F8185446F2A81703F00303794325F030
:104990003F05C2F818549840B0FBF1F02268D2F8F5
:1049A00018140143C2F818142068C0F8C4602068C5
:1049B000C0F8C860A6612068416821F0010141602B
:1049C0002068416801F001010091D0F894100122A3
:1049D00021F00301C0F89410D4E90003D0F894103A
:1049E000194341F00101C0F894106661627400201F
:1049F00009E700000386FCFF00093D002DE9FF4F99
:104A000081B00446007C1D469346DDE90EA60128D0
:104A100009D00120207400F0D5FB4FF47A790746C5
:104A20004FF000080DE0022005B0BDE8F08F00BF98
:104A300000F0C8FBC01B484503D9032084F8108050
:104A4000F2E72068406FC007F2D0032D504602D233
:104A500000212B4608E003230021082707EBC107AC
:104A6000725CBA401043491C9942F6D32168EA1A95
:104A70003344086714E0042A01D2164600E00426F5
:104A80000021084606E01F5C4FEAC00C07FA0CF74D
:104A90003943401CB042F6D32068921B334401676F
:104AA000002AE8D16D1C02995A46C5F307200090F0
:104AB0002068EBB2FEF74CFC002084F81080B3E7CE
:104AC0000068B0F1A04F08D10448016821F010013E
:104AD00001600348042100F09BB97047E444025888
:104AE0000024025810B5B8B00446142132A8FBF7D0
:104AF00005FFC8216846FBF701FF2068B0F1A04F11
:104B00002BD1002014904FF080610446CDE90010B5
:104B1000684601F02DFC08B1FEF707FD104801685A
:104B200041F010010160006800F0100037900C485F
:104B3000001F016841F400710160006832AB02217E
:104B400000F40070379004200D2283E8130005481C
:104B500032A9CDE9354200F013FA38B010BD00009B
:104B6000E4440258002402582DE9F84F0446007C22
:104B70008B461746DDE90A8ADDF8309001281D468C
:104B80000FD001204FF00006022D20740CD9C5F380
:104B90000720009037222046EBB2FEF719FC90BBAD
:104BA00002E00220BDE8F88FB8F1060F09D0B8F195
:104BB000040F0AD0B8F1140F0BD0B8F1240F0AD0AB
:104BC00040E00096534620680BE0009600232068E2
:104BD00007E0009602E099F80100009099F8003093
:104BE000206842465946FEF7B3FB00F0EBFA8046D8
:104BF0002BE02068416FC90612D4026F042D03D246
:104C000000202B460AE01DE0042300204FEAC00CE0
:104C100022FA0CF1401C6D1E07F8011B9842F5D3D7
:104C200000F0D0FAA0EB0800B0F57A7F02D903209B
:104C30002674B7E72068416F490606D4D0F8C00053
:104C4000800602D501202674ACE7002DD1DC0020BF
:104C50002674A7E7017C01290CD0012101740168A9
:104C60000022D1F8043443F00403C1F80434027480
:104C7000104670470220704738B504460498257CDA
:104C8000012D08D00125257400902046FEF7A0FBD9
:104C90000021217438BD022038BD08B5017C0129EE
:104CA0001BD001210174016800224B6843F001030D
:104CB0004B6001684B6803F001030093D1F80434A2
:104CC00043F00803C1F804340168D1F8041401F07A
:104CD000080100910274002008BD022008BD704741
:104CE00070B5044600F06EFA0546601C02D0044818
:104CF0000078044400F066FA401BA042FAD370BD6D
:104D0000B80F0024F0B5B9B0142132A8FBF7F6FDB6
:104D100037480168002968D101210160C82168462F
:104D2000FBF7ECFD002012904FF080710446CDE9B6
:104D30000010684601F01CFB08B1FEF7F6FB2D4899
:104D4000016841F4805101600068022534AA00F432
:104D50008050379040F2FF60CDE9320503262648A7
:104D60000C2782E8D00032A900F00AF934AA4FF6E5
:104D70008370CDE93205214832A982E8D00000F0E5
:104D8000FFF834AA4FF6E070CDE932051C4832A98D
:104D900082E8D00000F0F4F834AA48F21710CDE908
:104DA0003205184832A982E8D00000F0E9F834AAA8
:104DB0004CF20370CDE93205134832A982E8D000E5
:104DC00000F0DEF834AA4FF63F00CDE932050F4877
:104DD00032A982E8D00000F0D3F80022012130206F
:104DE00000F0DEFE302000F0CEFE39B0F0BD000055
:104DF000B00F0024D444025800200258001002587A
:104E0000001C025800180258000C025800140258E6
:104E10002DE9F04F4F4D00224FF0010A4FF00F0BDC
:104E200092E000BF0AFA02F919EA01037ED022F0EB
:104E3000030606F1B0469407D6F808C4270FDFF83A
:104E400018810BFA07FE40450EEA0C0402D14FF020
:104E5000000C40E0DFF804C1604502D14FF0010CC6
:104E600039E0DFF8FCC0604502D14FF0020C32E0BF
:104E7000DFF8F0C0604502D14FF0030C2BE0DFF803
:104E8000E8C0604502D14FF0040C24E0DFF8DCC03C
:104E9000604502D14FF0050C1DE0DFF8D4C060453D
:104EA00002D14FF0060C16E0DFF8C8C0604502D111
:104EB0004FF0070C0FE0DFF8C0C0604502D14FF0A3
:104EC000080C08E0DFF8B4C0604502D14FF0090CCF
:104ED00001E04FF00A0C0CFA07FCA44513D12C6832
:104EE0009C432C606F684FF0B0449F436F606768CD
:104EF0009F43676027689F432760D6F8084424EAE9
:104F00000E04C6F8084407680323D4084FEA420891
:104F10004FEA427C03FA08F34FEADC6C1F43076058
:104F20000BFA0CF600EB8404276A00E00BE0B743B1
:104F30002762C4689C43C460446824EA090444604E
:104F400084689C438460521C31FA02F37FF46AAF98
:104F5000BDE8F08F8000005800000258000402589D
:104F600000080258000C02580010025800140258A1
:104F700000180258001C0258002002580024025851
:104F80002DE9F84F03247D4D00234FF001094FF028
:104F9000B04B4FF00F0AE9E009FA03F73A4076D038
:104FA0000E7906F00306012E01D0022E18D1D0F89A
:104FB00008C04FEA430ECE6804FA0EF82CEA080C3B
:104FC00006FA0EF646EA0C068660D0F804C00E79A2
:104FD0002CEA070CC6F300169E4046EA0C06466013
:104FE0000E79F643B6070BD0C6684FEA43088F68C0
:104FF00004FA08FC26EA0C0607FA08F73743C760EC
:105000000E7906F00306022E12D1DE080F694FEA70
:10501000437C00EB8606B646366A4FEADC6C0AFA39
:105020000CF807FA0CF726EA08063743CEF820708A
:105030000F7906684FEA430807F0030704FA08FCF3
:1050400007FA08F726EA0C06374307604E6816F49D
:10505000403F1CD04A4E376847F002073760366839
:105060009F0706F00206009623F0030606F1B046FD
:10507000B6463F0FD6F80864DFF808810AFA07FC45
:10508000404526EA0C0603D14FF0000C41E06CE0ED
:10509000DFF8F4C0604502D14FF0010C39E0DFF8D1
:1050A000ECC0604502D14FF0020C32E0DFF8E0C006
:1050B000604502D14FF0030C2BE0DFF8D8C060450B
:1050C00002D14FF0040C24E0DFF8CCC0604502D1DF
:1050D0004FF0050C1DE0DFF8C4C0604502D14FF071
:1050E000060C16E0DFF8B8C0604502D14FF0070C9F
:1050F0000FE0DFF8B0C0604502D14FF0080C08E0C7
:10510000DFF8A4C0604502D14FF0090C01E04FF078
:105110000A0C0CFA07FC4CEA060CCEF808C44F68DF
:10512000DBF80060FF0226EA020600D516435F4660
:10513000CBF80060D1F804C0DBF804605FEA8C2C87
:1051400026EA020600D516437E606E684F6826EA9E
:105150000206BF0300D516436E602E684F6826EA2C
:105160000206FF0300D516432E605B1C0A6832FA64
:1051700003F67FF411AFBDE8F88F000080000058FF
:10518000F444025800000258000402580008025873
:10519000000C02580010025800140258001802585F
:1051A000001C025800200258002402580AB18161F4
:1051B00070470904FBE7000001480068000C7047D5
:1051C0000010005C0148806870470000B80F0024A0
:1051D000054901EB80010548D1F88014814201D1D5
:1051E00000207047012070470060025800030080D3
:1051F000034A41F4407102EB8000C0F8001470478C
:105200000060025830B590F84120202A24D190F84F
:105210004020012A20D0012380F84030242280F849
:105220004120202300240268156825F0010515603F
:105230000268156825F480551560026815680D43ED
:10524000156001680A6842F001020A6080F8413086
:1052500080F84040002030BD022030BD30B590F8CD
:105260004120202A22D190F84020012A1ED001237B
:1052700080F84030242280F8412020240025026854
:10528000136823F0010313600268136823F470634A
:1052900043EA0121116001680A6842F001020A60D4
:1052A00080F8414080F84050002030BD022030BDE1
:1052B00010B5040014D0242084F84100206801684F
:1052C00021F001010160204600F0D0F90020606467
:1052D00084F84100206384F8420084F8400010BD47
:1052E000012010BD406C704790F8410070470000ED
:1052F00070B5040004D094F84100002510B106E018
:10530000012070BD204684F8405000F0B0F9242000
:1053100084F841002068016821F001010160D4E9AE
:10532000001020F0706008612068816821F400415D
:105330008160E06821680128A06830D040F4044012
:105340008860E0680228206841682BD021F4006161
:10535000416020682021154A436813434360206858
:10536000C26822F40042C26054F8106B0DCC1043A6
:1053700040EA0320F06054F81C3CD4E900021043DA
:10538000186054F81C0D026842F001020260656466
:1053900084F84110256384F84250002070BD40F429
:1053A0000040CDE741F40061D2E700000080000238
:1053B0002DE9FF4F83B0044690F841009A4693468A
:1053C000DDE91087DDF84890202874D15FEA0800F5
:1053D00014D09FB194F8400001286CD0012084F8CB
:1053E0004000FFF7EFFE0122064619230090D1038B
:1053F000204602F0C1FF002871D103E04FF4007095
:1054000060646CE00025C4F82480222184F84110F7
:10541000402084F8420065646785534665635A46B8
:1054200004992046CDE9009602F02AFF10B184F8D5
:10543000405054E0618DFF2734484FF08078FF29B9
:105440004FF0007A04D927853A464346009005E09C
:10545000618D53462185009094F8282020460499B8
:1054600002F072FF00224B4604212046009602F013
:1054700083FFA0BB2068616A406A0870606A401CB4
:105480006062208D401E81B22185608D401E608546
:10549000608DD8B1D1B900224B46802120460096BC
:1054A00002F06AFFD8B9608DFF2805D927853A46F2
:1054B0004346009506E026E0608D53462085009522
:1054C00094F828202046049902F03EFF608D0028C1
:1054D000C8D132464946204602F08CFF18B101205F
:1054E00007B0BDE8F08F21682020094AC861216813
:1054F0004B6813404B6084F8410084F84250002010
:1055000084F84050ECE70220EAE700000024008025
:1055100000E800FE2DE9FF4F83B0044690F84100FB
:105520009A469346DDE91087DDF84890202871D12E
:105530005FEA080014D09FB194F84000012869D0B8
:10554000012084F84000FFF73DFE012206461923A2
:105550000090D103204602F00FFF00286ED103E037
:105560004FF40070606469E00025C4F824802121B4
:1055700084F84110402084F84200656467855346F2
:1055800065635A4604992046CDE9009602F0AAFECA
:1055900010B184F8405051E0608DFF274FF08078C3
:1055A000FF284FF0007A04D927853A4643460095F4
:1055B00005E0608D53462085009594F8282020460C
:1055C000049902F0C1FE32464946204602F03EFFF1
:1055D000A0BB606A216800788862606A401C6062D3
:1055E000608D401E6085208D401E80B22085618DBB
:1055F000D9B1D0B900224B4680212046009602F056
:10560000BBFED8B9608DFF2805D927853A464346A9
:10561000009506E026E0608D53462085009594F8BD
:1056200028202046049902F08FFE608D0028CAD100
:1056300032464946204602F0DDFE18B1012007B08F
:10564000BDE8F08F20682021074AC16120684368C7
:105650001340436084F8411084F84250002084F8DD
:105660004050ECE70220EAE700E800FE7047704790
:10567000024881680278114481607047B80F0024A5
:10568000032010B500F0ACFA01F0D6FC0F4A104927
:1056900014681368C4F3032203F00F038A5CC95C27
:1056A00002F01F0201F01F01D0400A4A20FA01F166
:1056B000116009490860002000F010F808B10120CD
:1056C00010BD00F035FA002010BD0000184402584B
:1056D000C4480108C80F0024C40F002470B50D4D44
:1056E00004462878A0B14FF47A71B1FBF0F00A4972
:1056F0000968B1FBF0F002F06BF848B9102C07D242
:1057000000222146501E00F04BFA00206C6070BD54
:10571000012070BDB80F0024C40F00242DE9F04112
:10572000044690F8A00016460F4601281DD001251A
:1057300084F8A050022084F8A10006EB860000EB5C
:10574000C600342204EB80003830FBF7A5F832465F
:105750003946204603F0ACF9216800204D6284F8F8
:10576000A15084F8A000BDE8F0810220FBE770B5ED
:10577000040016D02068D0F8841021F00101C0F890
:1057800084102068D0F8041121F00101C0F8041140
:105790002068416A41F002014162FFF713FD0546AE
:1057A00006E0012070BDFFF70DFD401B642803D803
:1057B0002068806C4007F6D52068816921F00101DE
:1057C0008161204600F0ECF80020C4F8A40084F8C1
:1057D000A10084F8A00070BD70472DE9F041044697
:1057E000006800274FF00408856B466B690715D5E4
:1057F000710713D5426B22F0040242632068C0F89F
:105800003C80D4F8A40040F00100C4F8A40084F85F
:10581000A180204684F8A070FFF7DEFFA80716D508
:10582000B00714D520680222436B23F002034363C0
:105830002068C263D4F8A40040F00200C4F8A400B9
:1058400084F8A180204684F8A070FFF7C5FF05EA20
:1058500006004FF00108C0070ED021684A6B22F005
:1058600001024A632168C1F83C8084F8A180204687
:1058700084F8A07000F092F8280710D530070ED5F4
:1058800020680822436B23F0080343632068C26347
:1058900084F8A180204684F8A07000F0DBF8BDE811
:1058A000F08100002DE9F041040004D094F8A1003B
:1058B000002518B107E00120BDE8F081204684F8FA
:1058C000A05000F085F83448022184F8A11001228C
:1058D00002CC8B6923F070438B6194E84A00194332
:1058E000E3681E4354F8043D31439E693143996196
:1058F00021688B6803408B602168A68AA7698B6842
:105900003B4343EA06438B602168CB680340CB608E
:105910002168A38B276ACE683E4346EA0346CE60E1
:1059200021680B6903400B612368A68CA76A19697B
:10593000394341EA0641196121684B6903404B61D3
:105940002068A38D266B4169314341EA03414161DF
:10595000236894F8351094F83600DE6A000406F0E7
:105960007F46DE62236840EA012094F83460D96AF9
:1059700031430143D9622068416B41F00601416324
:105980002068816941F001018161C4F8A45084F864
:10599000A120002090E7000000F800F07047000010
:1059A00010B50068084988420CD10848016821F008
:1059B00008010160582000F0D5F8BDE810405920DA
:1059C00000F0D0B810BD000000100050E4440258B0
:1059D000F0B5B3B00446C8216846FAF78FFF1B49FB
:1059E000206888422FD142040220002310240A9408
:1059F0008025CDE90B5007020D9004266846CDE9BD
:105A00000E63CDE91073CDE9002300F0B1FC08B1BD
:105A1000FDF78BFD0E48016841F008010160006848
:105A20000022012100F008003290582000F0B8F860
:105A3000582000F0A8F800220121592000F0B0F809
:105A4000592000F0A0F833B0F0BD00000010005065
:105A5000E4440258704728B190F83D10022903D061
:105A60008021816601207047042180F83D10006884
:105A7000C16821F00101C1600020704710B530B34A
:105A8000026800211F23D46824F00104D460026856
:105A9000D160026811610268516102689161026817
:105AA000D161026811620268516202689162026803
:105AB00011630268516302685360C1650166416603
:105AC000816680F83D1080F83C10002010BD012058
:105AD00010BD70B50446FFF775FB06465CB10025A6
